{"contracts/Habitude.sol":{"Habitude":{"abi":[{"inputs":[],"stateMutability":"nonpayable","type":"constructor"},{"inputs":[{"internalType":"string","name":"","type":"string"}],"name":"challenges","outputs":[{"internalType":"string","name":"name","type":"string"},{"internalType":"uint256","name":"totalStackAmount","type":"uint256"},{"internalType":"uint256","name":"perPersonStake","type":"uint256"},{"internalType":"bool","name":"completed","type":"bool"}],"stateMutability":"view","type":"function"},{"inputs":[{"internalType":"string","name":"_habitName","type":"string"}],"name":"claimPointsForHabit","outputs":[],"stateMutability":"nonpayable","type":"function"},{"inputs":[{"internalType":"string","name":"_challengeName","type":"string"}],"name":"claimStakedAmount","outputs":[],"stateMutability":"nonpayable","type":"function"},{"inputs":[{"internalType":"string","name":"_challengeName","type":"string"}],"name":"completeChallenge","outputs":[],"stateMutability":"nonpayable","type":"function"},{"inputs":[{"internalType":"string","name":"_habitName","type":"string"}],"name":"completeHabit","outputs":[],"stateMutability":"nonpayable","type":"function"},{"inputs":[{"internalType":"string","name":"_name","type":"string"},{"internalType":"uint256","name":"_totalStackAmount","type":"uint256"},{"internalType":"uint256","name":"_perPersonStake","type":"uint256"},{"internalType":"string[]","name":"_habitsIncluded","type":"string[]"}],"name":"createChallenge","outputs":[],"stateMutability":"payable","type":"function"},{"inputs":[{"internalType":"string","name":"_name","type":"string"},{"internalType":"uint256","name":"_goal","type":"uint256"},{"internalType":"uint256","name":"_target","type":"uint256"},{"internalType":"uint256","name":"_remainder","type":"uint256"},{"internalType":"uint256","name":"_points","type":"uint256"}],"name":"createHabit","outputs":[],"stateMutability":"nonpayable","type":"function"},{"inputs":[{"internalType":"string","name":"","type":"string"}],"name":"generalHabits","outputs":[{"internalType":"string","name":"name","type":"string"},{"internalType":"uint256","name":"goal","type":"uint256"},{"internalType":"uint256","name":"target","type":"uint256"},{"internalType":"uint256","name":"remainder","type":"uint256"},{"internalType":"uint256","name":"points","type":"uint256"}],"stateMutability":"view","type":"function"},{"inputs":[{"internalType":"string","name":"_challengeName","type":"string"}],"name":"getChallengeParticipants","outputs":[{"internalType":"address[]","name":"","type":"address[]"}],"stateMutability":"view","type":"function"},{"inputs":[{"internalType":"string","name":"","type":"string"}],"name":"habits","outputs":[{"internalType":"string","name":"name","type":"string"},{"internalType":"uint256","name":"goal","type":"uint256"},{"internalType":"uint256","name":"target","type":"uint256"},{"internalType":"uint256","name":"remainder","type":"uint256"},{"internalType":"uint256","name":"points","type":"uint256"}],"stateMutability":"view","type":"function"},{"inputs":[{"internalType":"string","name":"_challengeName","type":"string"}],"name":"joinChallenge","outputs":[],"stateMutability":"payable","type":"function"},{"inputs":[],"name":"owner","outputs":[{"internalType":"address","name":"","type":"address"}],"stateMutability":"view","type":"function"},{"inputs":[{"internalType":"address","name":"","type":"address"}],"name":"userPoints","outputs":[{"internalType":"uint256","name":"","type":"uint256"}],"stateMutability":"view","type":"function"}],"evm":{"bytecode":{"linkReferences":{},"object":"60806040523480156200001157600080fd5b50336000806101000a81548173ffffffffffffffffffffffffffffffffffffffff021916908373ffffffffffffffffffffffffffffffffffffffff1602179055506040518060a001604052806040518060400160405280600781526020017f77616c6b696e67000000000000000000000000000000000000000000000000008152508152602001601e8152602001601e815260200160008152602001600a8152506002604051620000c290620003b7565b90815260200160405180910390206000820151816000019081620000e7919062000648565b50602082015181600101556040820151816002015560608201518160030155608082015181600401559050506040518060a001604052806040518060400160405280600e81526020017f6472696e6b696e675f776174657200000000000000000000000000000000000081525081526020016008815260200160088152602001600081526020016005815250600260405162000183906200077f565b90815260200160405180910390206000820151816000019081620001a8919062000648565b50602082015181600101556040820151816002015560608201518160030155608082015181600401559050506040518060a001604052806040518060400160405280600881526020017f736c656570696e670000000000000000000000000000000000000000000000008152508152602001600781526020016007815260200160008152602001600f81525060026040516200024490620007e6565b9081526020016040518091039020600082015181600001908162000269919062000648565b50602082015181600101556040820151816002015560608201518160030155608082015181600401559050506040518060a001604052806040518060400160405280600d81526020017f72656164696e675f626f6f6b730000000000000000000000000000000000000081525081526020016001815260200160018152602001600081526020016014815250600260405162000305906200084d565b908152602001604051809103902060008201518160000190816200032a919062000648565b506020820151816001015560408201518160020155606082015181600301556080820151816004015590505062000864565b600081905092915050565b7f77616c6b696e6700000000000000000000000000000000000000000000000000600082015250565b60006200039f6007836200035c565b9150620003ac8262000367565b600782019050919050565b6000620003c48262000390565b9150819050919050565b600081519050919050565b7f4e487b7100000000000000000000000000000000000000000000000000000000600052604160045260246000fd5b7f4e487b7100000000000000000000000000000000000000000000000000000000600052602260045260246000fd5b600060028204905060018216806200045057607f821691505b60208210810362000466576200046562000408565b5b50919050565b60008190508160005260206000209050919050565b60006020601f8301049050919050565b600082821b905092915050565b600060088302620004d07fffffffffffffffffffffffffffffffffffffffffffffffffffffffffffffffff8262000491565b620004dc868362000491565b95508019841693508086168417925050509392505050565b6000819050919050565b6000819050919050565b600062000529620005236200051d84620004f4565b620004fe565b620004f4565b9050919050565b6000819050919050565b620005458362000508565b6200055d620005548262000530565b8484546200049e565b825550505050565b600090565b6200057462000565565b620005818184846200053a565b505050565b5b81811015620005a9576200059d6000826200056a565b60018101905062000587565b5050565b601f821115620005f857620005c2816200046c565b620005cd8462000481565b81016020851015620005dd578190505b620005f5620005ec8562000481565b83018262000586565b50505b505050565b600082821c905092915050565b60006200061d60001984600802620005fd565b1980831691505092915050565b60006200063883836200060a565b9150826002028217905092915050565b6200065382620003ce565b67ffffffffffffffff8111156200066f576200066e620003d9565b5b6200067b825462000437565b62000688828285620005ad565b600060209050601f831160018114620006c05760008415620006ab578287015190505b620006b785826200062a565b86555062000727565b601f198416620006d0866200046c565b60005b82811015620006fa57848901518255600182019150602085019450602081019050620006d3565b868310156200071a578489015162000716601f8916826200060a565b8355505b6001600288020188555050505b505050505050565b7f6472696e6b696e675f7761746572000000000000000000000000000000000000600082015250565b600062000767600e836200035c565b915062000774826200072f565b600e82019050919050565b60006200078c8262000758565b9150819050919050565b7f736c656570696e67000000000000000000000000000000000000000000000000600082015250565b6000620007ce6008836200035c565b9150620007db8262000796565b600882019050919050565b6000620007f382620007bf565b9150819050919050565b7f72656164696e675f626f6f6b7300000000000000000000000000000000000000600082015250565b600062000835600d836200035c565b91506200084282620007fd565b600d82019050919050565b60006200085a8262000826565b9150819050919050565b61247980620008746000396000f3fe6080604052600436106100c25760003560e01c80637d0d8ba11161007f578063a3edd71c11610059578063a3edd71c14610270578063ae71d354146102b1578063b162212b146102da578063f50ddbc7146102f6576100c2565b80637d0d8ba1146101f35780638da5cb5b1461021c57806398d0c51814610247576100c2565b80630e4f98d6146100c75780632fff778c14610108578063314adaf2146101315780635419ef67146101715780636eee97311461019a578063719c70c6146101d7575b600080fd5b3480156100d357600080fd5b506100ee60048036038101906100e99190611425565b610333565b6040516100ff959493929190611506565b60405180910390f35b34801561011457600080fd5b5061012f600480360381019061012a919061158c565b610407565b005b34801561013d57600080fd5b5061015860048036038101906101539190611425565b6104fa565b604051610168949392919061163e565b60405180910390f35b34801561017d57600080fd5b5061019860048036038101906101939190611425565b6105d5565b005b3480156101a657600080fd5b506101c160048036038101906101bc9190611425565b61071b565b6040516101ce919061177a565b60405180910390f35b6101f160048036038101906101ec9190611882565b6107ca565b005b3480156101ff57600080fd5b5061021a60048036038101906102159190611425565b6109dd565b005b34801561022857600080fd5b50610231610be7565b60405161023e9190611930565b60405180910390f35b34801561025357600080fd5b5061026e60048036038101906102699190611425565b610c0b565b005b34801561027c57600080fd5b5061029760048036038101906102929190611425565b610d4b565b6040516102a8959493929190611506565b60405180910390f35b3480156102bd57600080fd5b506102d860048036038101906102d39190611425565b610e1f565b005b6102f460048036038101906102ef9190611425565b610f7b565b005b34801561030257600080fd5b5061031d60048036038101906103189190611977565b6112b3565b60405161032a91906119a4565b60405180910390f35b60018180516020810182018051848252602083016020850120818352809550505050505060009150905080600001805461036c906119ee565b80601f0160208091040260200160405190810160405280929190818152602001828054610398906119ee565b80156103e55780601f106103ba576101008083540402835291602001916103e5565b820191906000526020600020905b8154815290600101906020018083116103c857829003601f168201915b5050505050908060010154908060020154908060030154908060040154905085565b60006040518060a00160405280878152602001868152602001858152602001848152602001838152509050806001876040516104439190611a5b565b908152602001604051809103902060008201518160000190816104669190611c1e565b5060208201518160010155604082015181600201556060820151816003015560808201518160040155905050806002876040516104a39190611a5b565b908152602001604051809103902060008201518160000190816104c69190611c1e565b5060208201518160010155604082015181600201556060820151816003015560808201518160040155905050505050505050565b600481805160208101820180518482526020830160208501208183528095505050505050600091509050806000018054610533906119ee565b80601f016020809104026020016040519081016040528092919081815260200182805461055f906119ee565b80156105ac5780601f10610581576101008083540402835291602001916105ac565b820191906000526020600020905b81548152906001019060200180831161058f57829003601f168201915b5050505050908060010154908060020154908060070160009054906101000a900460ff16905084565b60008054906101000a900473ffffffffffffffffffffffffffffffffffffffff1673ffffffffffffffffffffffffffffffffffffffff163373ffffffffffffffffffffffffffffffffffffffff1614610663576040517f08c379a000000000000000000000000000000000000000000000000000000000815260040161065a90611d62565b60405180910390fd5b808051906020012060028260405161067b9190611a5b565b90815260200160405180910390206000016040516106999190611e25565b6040518091039020146106e1576040517f08c379a00000000000000000000000000000000000000000000000000000000081526004016106d890611e88565b60405180910390fd5b6001816040516106f19190611a5b565b9081526020016040518091039020600301600081548092919061071390611ed7565b919050555050565b606060048260405161072d9190611a5b565b90815260200160405180910390206006018054806020026020016040519081016040528092919081815260200182805480156107be57602002820191906000526020600020905b8160009054906101000a900473ffffffffffffffffffffffffffffffffffffffff1673ffffffffffffffffffffffffffffffffffffffff1681526020019060010190808311610774575b50505050509050919050565b81341461080c576040517f08c379a000000000000000000000000000000000000000000000000000000000815260040161080390611f72565b60405180910390fd5b600060048560405161081e9190611a5b565b908152602001604051809103902090508481600001908161083f9190611c1e565b5083816001018190555082816002018190555060018160030160003373ffffffffffffffffffffffffffffffffffffffff1673ffffffffffffffffffffffffffffffffffffffff16815260200190815260200160002060006101000a81548160ff021916908315150217905550828160040160003373ffffffffffffffffffffffffffffffffffffffff1673ffffffffffffffffffffffffffffffffffffffff16815260200190815260200160002060008282546108fd9190611f92565b9250508190555080600601339080600181540180825580915050600190039060005260206000200160009091909190916101000a81548173ffffffffffffffffffffffffffffffffffffffff021916908373ffffffffffffffffffffffffffffffffffffffff16021790555060005b82518110156109d55760018260050184838151811061098e5761098d611fc6565b5b60200260200101516040516109a39190611a5b565b908152602001604051809103902060006101000a81548160ff021916908315150217905550808060010191505061096c565b505050505050565b600115156004826040516109f19190611a5b565b908152602001604051809103902060070160009054906101000a900460ff16151514610a52576040517f08c379a0000000000000000000000000000000000000000000000000000000008152600401610a4990612041565b60405180910390fd5b60011515600482604051610a669190611a5b565b908152602001604051809103902060030160003373ffffffffffffffffffffffffffffffffffffffff1673ffffffffffffffffffffffffffffffffffffffff16815260200190815260200160002060009054906101000a900460ff16151514610b04576040517f08c379a0000000000000000000000000000000000000000000000000000000008152600401610afb906120ad565b60405180910390fd5b6000600482604051610b169190611a5b565b908152602001604051809103902090506000816006018054905090506000818360020154610b4491906120cd565b905060008211610b89576040517f08c379a0000000000000000000000000000000000000000000000000000000008152600401610b8090612181565b60405180910390fd5b60008282610b9791906121d0565b90503373ffffffffffffffffffffffffffffffffffffffff166108fc829081150290604051600060405180830381858888f19350505050158015610bdf573d6000803e3d6000fd5b505050505050565b60008054906101000a900473ffffffffffffffffffffffffffffffffffffffff1681565b60008054906101000a900473ffffffffffffffffffffffffffffffffffffffff1673ffffffffffffffffffffffffffffffffffffffff163373ffffffffffffffffffffffffffffffffffffffff1614610c99576040517f08c379a0000000000000000000000000000000000000000000000000000000008152600401610c9090611d62565b60405180910390fd5b60001515600482604051610cad9190611a5b565b908152602001604051809103902060070160009054906101000a900460ff16151514610d0e576040517f08c379a0000000000000000000000000000000000000000000000000000000008152600401610d059061224d565b60405180910390fd5b6001600482604051610d209190611a5b565b908152602001604051809103902060070160006101000a81548160ff02191690831515021790555050565b600281805160208101820180518482526020830160208501208183528095505050505050600091509050806000018054610d84906119ee565b80601f0160208091040260200160405190810160405280929190818152602001828054610db0906119ee565b8015610dfd5780601f10610dd257610100808354040283529160200191610dfd565b820191906000526020600020905b815481529060010190602001808311610de057829003601f168201915b5050505050908060010154908060020154908060030154908060040154905085565b8080519060200120600282604051610e379190611a5b565b9081526020016040518091039020600001604051610e559190611e25565b604051809103902014610e9d576040517f08c379a0000000000000000000000000000000000000000000000000000000008152600401610e9490611e88565b60405180910390fd5b6000600182604051610eaf9190611a5b565b90815260200160405180910390206003015414610f01576040517f08c379a0000000000000000000000000000000000000000000000000000000008152600401610ef8906122b9565b60405180910390fd5b600181604051610f119190611a5b565b908152602001604051809103902060040154600360003373ffffffffffffffffffffffffffffffffffffffff1673ffffffffffffffffffffffffffffffffffffffff1681526020019081526020016000206000828254610f719190611f92565b9250508190555050565b60001515600482604051610f8f9190611a5b565b908152602001604051809103902060030160003373ffffffffffffffffffffffffffffffffffffffff1673ffffffffffffffffffffffffffffffffffffffff16815260200190815260200160002060009054906101000a900460ff1615151461102d576040517f08c379a000000000000000000000000000000000000000000000000000000000815260040161102490612325565b60405180910390fd5b600060048260405161103f9190611a5b565b90815260200160405180910390206006018054905090506004826040516110669190611a5b565b908152602001604051809103902060020154816004846040516110899190611a5b565b9081526020016040518091039020600201546110a591906120cd565b6110af9190611f92565b6004836040516110bf9190611a5b565b9081526020016040518091039020600101541015611112576040517f08c379a0000000000000000000000000000000000000000000000000000000008152600401611109906123b7565b60405180910390fd5b6004826040516111229190611a5b565b9081526020016040518091039020600201543414611175576040517f08c379a000000000000000000000000000000000000000000000000000000000815260040161116c90612423565b60405180910390fd5b60006004836040516111879190611a5b565b9081526020016040518091039020905060018160030160003373ffffffffffffffffffffffffffffffffffffffff1673ffffffffffffffffffffffffffffffffffffffff16815260200190815260200160002060006101000a81548160ff021916908315150217905550348160040160003373ffffffffffffffffffffffffffffffffffffffff1673ffffffffffffffffffffffffffffffffffffffff16815260200190815260200160002060008282546112429190611f92565b9250508190555080600601339080600181540180825580915050600190039060005260206000200160009091909190916101000a81548173ffffffffffffffffffffffffffffffffffffffff021916908373ffffffffffffffffffffffffffffffffffffffff160217905550505050565b60036020528060005260406000206000915090505481565b6000604051905090565b600080fd5b600080fd5b600080fd5b600080fd5b6000601f19601f8301169050919050565b7f4e487b7100000000000000000000000000000000000000000000000000000000600052604160045260246000fd5b611332826112e9565b810181811067ffffffffffffffff82111715611351576113506112fa565b5b80604052505050565b60006113646112cb565b90506113708282611329565b919050565b600067ffffffffffffffff8211156113905761138f6112fa565b5b611399826112e9565b9050602081019050919050565b82818337600083830152505050565b60006113c86113c384611375565b61135a565b9050828152602081018484840111156113e4576113e36112e4565b5b6113ef8482856113a6565b509392505050565b600082601f83011261140c5761140b6112df565b5b813561141c8482602086016113b5565b91505092915050565b60006020828403121561143b5761143a6112d5565b5b600082013567ffffffffffffffff811115611459576114586112da565b5b611465848285016113f7565b91505092915050565b600081519050919050565b600082825260208201905092915050565b60005b838110156114a857808201518184015260208101905061148d565b60008484015250505050565b60006114bf8261146e565b6114c98185611479565b93506114d981856020860161148a565b6114e2816112e9565b840191505092915050565b6000819050919050565b611500816114ed565b82525050565b600060a082019050818103600083015261152081886114b4565b905061152f60208301876114f7565b61153c60408301866114f7565b61154960608301856114f7565b61155660808301846114f7565b9695505050505050565b611569816114ed565b811461157457600080fd5b50565b60008135905061158681611560565b92915050565b600080600080600060a086880312156115a8576115a76112d5565b5b600086013567ffffffffffffffff8111156115c6576115c56112da565b5b6115d2888289016113f7565b95505060206115e388828901611577565b94505060406115f488828901611577565b935050606061160588828901611577565b925050608061161688828901611577565b9150509295509295909350565b60008115159050919050565b61163881611623565b82525050565b6000608082019050818103600083015261165881876114b4565b905061166760208301866114f7565b61167460408301856114f7565b611681606083018461162f565b95945050505050565b600081519050919050565b600082825260208201905092915050565b6000819050602082019050919050565b600073ffffffffffffffffffffffffffffffffffffffff82169050919050565b60006116e1826116b6565b9050919050565b6116f1816116d6565b82525050565b600061170383836116e8565b60208301905092915050565b6000602082019050919050565b60006117278261168a565b6117318185611695565b935061173c836116a6565b8060005b8381101561176d57815161175488826116f7565b975061175f8361170f565b925050600181019050611740565b5085935050505092915050565b60006020820190508181036000830152611794818461171c565b905092915050565b600067ffffffffffffffff8211156117b7576117b66112fa565b5b602082029050602081019050919050565b600080fd5b60006117e06117db8461179c565b61135a565b90508083825260208201905060208402830185811115611803576118026117c8565b5b835b8181101561184a57803567ffffffffffffffff811115611828576118276112df565b5b80860161183589826113f7565b85526020850194505050602081019050611805565b5050509392505050565b600082601f830112611869576118686112df565b5b81356118798482602086016117cd565b91505092915050565b6000806000806080858703121561189c5761189b6112d5565b5b600085013567ffffffffffffffff8111156118ba576118b96112da565b5b6118c6878288016113f7565b94505060206118d787828801611577565b93505060406118e887828801611577565b925050606085013567ffffffffffffffff811115611909576119086112da565b5b61191587828801611854565b91505092959194509250565b61192a816116d6565b82525050565b60006020820190506119456000830184611921565b92915050565b611954816116d6565b811461195f57600080fd5b50565b6000813590506119718161194b565b92915050565b60006020828403121561198d5761198c6112d5565b5b600061199b84828501611962565b91505092915050565b60006020820190506119b960008301846114f7565b92915050565b7f4e487b7100000000000000000000000000000000000000000000000000000000600052602260045260246000fd5b60006002820490506001821680611a0657607f821691505b602082108103611a1957611a186119bf565b5b50919050565b600081905092915050565b6000611a358261146e565b611a3f8185611a1f565b9350611a4f81856020860161148a565b80840191505092915050565b6000611a678284611a2a565b915081905092915050565b60008190508160005260206000209050919050565b60006020601f8301049050919050565b600082821b905092915050565b600060088302611ad47fffffffffffffffffffffffffffffffffffffffffffffffffffffffffffffffff82611a97565b611ade8683611a97565b95508019841693508086168417925050509392505050565b6000819050919050565b6000611b1b611b16611b11846114ed565b611af6565b6114ed565b9050919050565b6000819050919050565b611b3583611b00565b611b49611b4182611b22565b848454611aa4565b825550505050565b600090565b611b5e611b51565b611b69818484611b2c565b505050565b5b81811015611b8d57611b82600082611b56565b600181019050611b6f565b5050565b601f821115611bd257611ba381611a72565b611bac84611a87565b81016020851015611bbb578190505b611bcf611bc785611a87565b830182611b6e565b50505b505050565b600082821c905092915050565b6000611bf560001984600802611bd7565b1980831691505092915050565b6000611c0e8383611be4565b9150826002028217905092915050565b611c278261146e565b67ffffffffffffffff811115611c4057611c3f6112fa565b5b611c4a82546119ee565b611c55828285611b91565b600060209050601f831160018114611c885760008415611c76578287015190505b611c808582611c02565b865550611ce8565b601f198416611c9686611a72565b60005b82811015611cbe57848901518255600182019150602085019450602081019050611c99565b86831015611cdb5784890151611cd7601f891682611be4565b8355505b6001600288020188555050505b505050505050565b7f4f6e6c79206f776e65722063616e2063616c6c20746869732066756e6374696f60008201527f6e00000000000000000000000000000000000000000000000000000000000000602082015250565b6000611d4c602183611479565b9150611d5782611cf0565b604082019050919050565b60006020820190508181036000830152611d7b81611d3f565b9050919050565b600081905092915050565b60008190508160005260206000209050919050565b60008154611daf816119ee565b611db98186611d82565b94506001821660008114611dd45760018114611de957611e1c565b60ff1983168652811515820286019350611e1c565b611df285611d8d565b60005b83811015611e1457815481890152600182019150602081019050611df5565b838801955050505b50505092915050565b6000611e318284611da2565b915081905092915050565b7f4861626974206e6f7420666f756e640000000000000000000000000000000000600082015250565b6000611e72600f83611479565b9150611e7d82611e3c565b602082019050919050565b60006020820190508181036000830152611ea181611e65565b9050919050565b7f4e487b7100000000000000000000000000000000000000000000000000000000600052601160045260246000fd5b6000611ee2826114ed565b915060008203611ef557611ef4611ea8565b5b600182039050919050565b7f43726561746f72206d757374207374616b652070657220706572736f6e20737460008201527f616b650000000000000000000000000000000000000000000000000000000000602082015250565b6000611f5c602383611479565b9150611f6782611f00565b604082019050919050565b60006020820190508181036000830152611f8b81611f4f565b9050919050565b6000611f9d826114ed565b9150611fa8836114ed565b9250828201905080821115611fc057611fbf611ea8565b5b92915050565b7f4e487b7100000000000000000000000000000000000000000000000000000000600052603260045260246000fd5b7f4368616c6c656e6765206e6f7420636f6d706c65746564000000000000000000600082015250565b600061202b601783611479565b915061203682611ff5565b602082019050919050565b6000602082019050818103600083015261205a8161201e565b9050919050565b7f4e6f742061207061727469636970616e74000000000000000000000000000000600082015250565b6000612097601183611479565b91506120a282612061565b602082019050919050565b600060208201905081810360008301526120c68161208a565b9050919050565b60006120d8826114ed565b91506120e3836114ed565b92508282026120f1816114ed565b9150828204841483151761210857612107611ea8565b5b5092915050565b7f4e6f207061727469636970616e747320636f6d706c657465642074686520636860008201527f616c6c656e676500000000000000000000000000000000000000000000000000602082015250565b600061216b602783611479565b91506121768261210f565b604082019050919050565b6000602082019050818103600083015261219a8161215e565b9050919050565b7f4e487b7100000000000000000000000000000000000000000000000000000000600052601260045260246000fd5b60006121db826114ed565b91506121e6836114ed565b9250826121f6576121f56121a1565b5b828204905092915050565b7f4368616c6c656e676520616c726561647920636f6d706c657465640000000000600082015250565b6000612237601b83611479565b915061224282612201565b602082019050919050565b600060208201905081810360008301526122668161222a565b9050919050565b7f4861626974206e6f7420636f6d706c6574656400000000000000000000000000600082015250565b60006122a3601383611479565b91506122ae8261226d565b602082019050919050565b600060208201905081810360008301526122d281612296565b9050919050565b7f416c7265616479206a6f696e6564000000000000000000000000000000000000600082015250565b600061230f600e83611479565b915061231a826122d9565b602082019050919050565b6000602082019050818103600083015261233e81612302565b9050919050565b7f546f74616c20737461636b696e6720616d6f756e74206578636565647320746860008201527f65206c696d697400000000000000000000000000000000000000000000000000602082015250565b60006123a1602783611479565b91506123ac82612345565b604082019050919050565b600060208201905081810360008301526123d081612394565b9050919050565b7f496e636f7272656374207374616b6520616d6f756e7400000000000000000000600082015250565b600061240d601683611479565b9150612418826123d7565b602082019050919050565b6000602082019050818103600083015261243c81612400565b905091905056fea2646970667358221220d61b5c96fdef8d9f469bf80e55dee5f2e4755576f474616034adfebb7387e21264736f6c63430008180033","opcodes":"PUSH1 0x80 PUSH1 0x40 MSTORE CALLVALUE DUP1 ISZERO PUSH3 0x11 JUMPI PUSH1 0x0 DUP1 REVERT JUMPDEST POP CALLER PUSH1 0x0 DUP1 PUSH2 0x100 EXP DUP2 SLOAD DUP2 PUSH20 0xFFFFFFFFFFFFFFFFFFFFFFFFFFFFFFFFFFFFFFFF MUL NOT AND SWAP1 DUP4 PUSH20 0xFFFFFFFFFFFFFFFFFFFFFFFFFFFFFFFFFFFFFFFF AND MUL OR SWAP1 SSTORE POP PUSH1 0x40 MLOAD DUP1 PUSH1 0xA0 ADD PUSH1 0x40 MSTORE DUP1 PUSH1 0x40 MLOAD DUP1 PUSH1 0x40 ADD PUSH1 0x40 MSTORE DUP1 PUSH1 0x7 DUP2 MSTORE PUSH1 0x20 ADD PUSH32 0x77616C6B696E6700000000000000000000000000000000000000000000000000 DUP2 MSTORE POP DUP2 MSTORE PUSH1 0x20 ADD PUSH1 0x1E DUP2 MSTORE PUSH1 0x20 ADD PUSH1 0x1E DUP2 MSTORE PUSH1 0x20 ADD PUSH1 0x0 DUP2 MSTORE PUSH1 0x20 ADD PUSH1 0xA DUP2 MSTORE POP PUSH1 0x2 PUSH1 0x40 MLOAD PUSH3 0xC2 SWAP1 PUSH3 0x3B7 JUMP JUMPDEST SWAP1 DUP2 MSTORE PUSH1 0x20 ADD PUSH1 0x40 MLOAD DUP1 SWAP2 SUB SWAP1 KECCAK256 PUSH1 0x0 DUP3 ADD MLOAD DUP2 PUSH1 0x0 ADD SWAP1 DUP2 PUSH3 0xE7 SWAP2 SWAP1 PUSH3 0x648 JUMP JUMPDEST POP PUSH1 0x20 DUP3 ADD MLOAD DUP2 PUSH1 0x1 ADD SSTORE PUSH1 0x40 DUP3 ADD MLOAD DUP2 PUSH1 0x2 ADD SSTORE PUSH1 0x60 DUP3 ADD MLOAD DUP2 PUSH1 0x3 ADD SSTORE PUSH1 0x80 DUP3 ADD MLOAD DUP2 PUSH1 0x4 ADD SSTORE SWAP1 POP POP PUSH1 0x40 MLOAD DUP1 PUSH1 0xA0 ADD PUSH1 0x40 MSTORE DUP1 PUSH1 0x40 MLOAD DUP1 PUSH1 0x40 ADD PUSH1 0x40 MSTORE DUP1 PUSH1 0xE DUP2 MSTORE PUSH1 0x20 ADD PUSH32 0x6472696E6B696E675F7761746572000000000000000000000000000000000000 DUP2 MSTORE POP DUP2 MSTORE PUSH1 0x20 ADD PUSH1 0x8 DUP2 MSTORE PUSH1 0x20 ADD PUSH1 0x8 DUP2 MSTORE PUSH1 0x20 ADD PUSH1 0x0 DUP2 MSTORE PUSH1 0x20 ADD PUSH1 0x5 DUP2 MSTORE POP PUSH1 0x2 PUSH1 0x40 MLOAD PUSH3 0x183 SWAP1 PUSH3 0x77F JUMP JUMPDEST SWAP1 DUP2 MSTORE PUSH1 0x20 ADD PUSH1 0x40 MLOAD DUP1 SWAP2 SUB SWAP1 KECCAK256 PUSH1 0x0 DUP3 ADD MLOAD DUP2 PUSH1 0x0 ADD SWAP1 DUP2 PUSH3 0x1A8 SWAP2 SWAP1 PUSH3 0x648 JUMP JUMPDEST POP PUSH1 0x20 DUP3 ADD MLOAD DUP2 PUSH1 0x1 ADD SSTORE PUSH1 0x40 DUP3 ADD MLOAD DUP2 PUSH1 0x2 ADD SSTORE PUSH1 0x60 DUP3 ADD MLOAD DUP2 PUSH1 0x3 ADD SSTORE PUSH1 0x80 DUP3 ADD MLOAD DUP2 PUSH1 0x4 ADD SSTORE SWAP1 POP POP PUSH1 0x40 MLOAD DUP1 PUSH1 0xA0 ADD PUSH1 0x40 MSTORE DUP1 PUSH1 0x40 MLOAD DUP1 PUSH1 0x40 ADD PUSH1 0x40 MSTORE DUP1 PUSH1 0x8 DUP2 MSTORE PUSH1 0x20 ADD PUSH32 0x736C656570696E67000000000000000000000000000000000000000000000000 DUP2 MSTORE POP DUP2 MSTORE PUSH1 0x20 ADD PUSH1 0x7 DUP2 MSTORE PUSH1 0x20 ADD PUSH1 0x7 DUP2 MSTORE PUSH1 0x20 ADD PUSH1 0x0 DUP2 MSTORE PUSH1 0x20 ADD PUSH1 0xF DUP2 MSTORE POP PUSH1 0x2 PUSH1 0x40 MLOAD PUSH3 0x244 SWAP1 PUSH3 0x7E6 JUMP JUMPDEST SWAP1 DUP2 MSTORE PUSH1 0x20 ADD PUSH1 0x40 MLOAD DUP1 SWAP2 SUB SWAP1 KECCAK256 PUSH1 0x0 DUP3 ADD MLOAD DUP2 PUSH1 0x0 ADD SWAP1 DUP2 PUSH3 0x269 SWAP2 SWAP1 PUSH3 0x648 JUMP JUMPDEST POP PUSH1 0x20 DUP3 ADD MLOAD DUP2 PUSH1 0x1 ADD SSTORE PUSH1 0x40 DUP3 ADD MLOAD DUP2 PUSH1 0x2 ADD SSTORE PUSH1 0x60 DUP3 ADD MLOAD DUP2 PUSH1 0x3 ADD SSTORE PUSH1 0x80 DUP3 ADD MLOAD DUP2 PUSH1 0x4 ADD SSTORE SWAP1 POP POP PUSH1 0x40 MLOAD DUP1 PUSH1 0xA0 ADD PUSH1 0x40 MSTORE DUP1 PUSH1 0x40 MLOAD DUP1 PUSH1 0x40 ADD PUSH1 0x40 MSTORE DUP1 PUSH1 0xD DUP2 MSTORE PUSH1 0x20 ADD PUSH32 0x72656164696E675F626F6F6B7300000000000000000000000000000000000000 DUP2 MSTORE POP DUP2 MSTORE PUSH1 0x20 ADD PUSH1 0x1 DUP2 MSTORE PUSH1 0x20 ADD PUSH1 0x1 DUP2 MSTORE PUSH1 0x20 ADD PUSH1 0x0 DUP2 MSTORE PUSH1 0x20 ADD PUSH1 0x14 DUP2 MSTORE POP PUSH1 0x2 PUSH1 0x40 MLOAD PUSH3 0x305 SWAP1 PUSH3 0x84D JUMP JUMPDEST SWAP1 DUP2 MSTORE PUSH1 0x20 ADD PUSH1 0x40 MLOAD DUP1 SWAP2 SUB SWAP1 KECCAK256 PUSH1 0x0 DUP3 ADD MLOAD DUP2 PUSH1 0x0 ADD SWAP1 DUP2 PUSH3 0x32A SWAP2 SWAP1 PUSH3 0x648 JUMP JUMPDEST POP PUSH1 0x20 DUP3 ADD MLOAD DUP2 PUSH1 0x1 ADD SSTORE PUSH1 0x40 DUP3 ADD MLOAD DUP2 PUSH1 0x2 ADD SSTORE PUSH1 0x60 DUP3 ADD MLOAD DUP2 PUSH1 0x3 ADD SSTORE PUSH1 0x80 DUP3 ADD MLOAD DUP2 PUSH1 0x4 ADD SSTORE SWAP1 POP POP PUSH3 0x864 JUMP JUMPDEST PUSH1 0x0 DUP2 SWAP1 POP SWAP3 SWAP2 POP POP JUMP JUMPDEST PUSH32 0x77616C6B696E6700000000000000000000000000000000000000000000000000 PUSH1 0x0 DUP3 ADD MSTORE POP JUMP JUMPDEST PUSH1 0x0 PUSH3 0x39F PUSH1 0x7 DUP4 PUSH3 0x35C JUMP JUMPDEST SWAP2 POP PUSH3 0x3AC DUP3 PUSH3 0x367 JUMP JUMPDEST PUSH1 0x7 DUP3 ADD SWAP1 POP SWAP2 SWAP1 POP JUMP JUMPDEST PUSH1 0x0 PUSH3 0x3C4 DUP3 PUSH3 0x390 JUMP JUMPDEST SWAP2 POP DUP2 SWAP1 POP SWAP2 SWAP1 POP JUMP JUMPDEST PUSH1 0x0 DUP2 MLOAD SWAP1 POP SWAP2 SWAP1 POP JUMP JUMPDEST PUSH32 0x4E487B7100000000000000000000000000000000000000000000000000000000 PUSH1 0x0 MSTORE PUSH1 0x41 PUSH1 0x4 MSTORE PUSH1 0x24 PUSH1 0x0 REVERT JUMPDEST PUSH32 0x4E487B7100000000000000000000000000000000000000000000000000000000 PUSH1 0x0 MSTORE PUSH1 0x22 PUSH1 0x4 MSTORE PUSH1 0x24 PUSH1 0x0 REVERT JUMPDEST PUSH1 0x0 PUSH1 0x2 DUP3 DIV SWAP1 POP PUSH1 0x1 DUP3 AND DUP1 PUSH3 0x450 JUMPI PUSH1 0x7F DUP3 AND SWAP2 POP JUMPDEST PUSH1 0x20 DUP3 LT DUP2 SUB PUSH3 0x466 JUMPI PUSH3 0x465 PUSH3 0x408 JUMP JUMPDEST JUMPDEST POP SWAP2 SWAP1 POP JUMP JUMPDEST PUSH1 0x0 DUP2 SWAP1 POP DUP2 PUSH1 0x0 MSTORE PUSH1 0x20 PUSH1 0x0 KECCAK256 SWAP1 POP SWAP2 SWAP1 POP JUMP JUMPDEST PUSH1 0x0 PUSH1 0x20 PUSH1 0x1F DUP4 ADD DIV SWAP1 POP SWAP2 SWAP1 POP JUMP JUMPDEST PUSH1 0x0 DUP3 DUP3 SHL SWAP1 POP SWAP3 SWAP2 POP POP JUMP JUMPDEST PUSH1 0x0 PUSH1 0x8 DUP4 MUL PUSH3 0x4D0 PUSH32 0xFFFFFFFFFFFFFFFFFFFFFFFFFFFFFFFFFFFFFFFFFFFFFFFFFFFFFFFFFFFFFFFF DUP3 PUSH3 0x491 JUMP JUMPDEST PUSH3 0x4DC DUP7 DUP4 PUSH3 0x491 JUMP JUMPDEST SWAP6 POP DUP1 NOT DUP5 AND SWAP4 POP DUP1 DUP7 AND DUP5 OR SWAP3 POP POP POP SWAP4 SWAP3 POP POP POP JUMP JUMPDEST PUSH1 0x0 DUP2 SWAP1 POP SWAP2 SWAP1 POP JUMP JUMPDEST PUSH1 0x0 DUP2 SWAP1 POP SWAP2 SWAP1 POP JUMP JUMPDEST PUSH1 0x0 PUSH3 0x529 PUSH3 0x523 PUSH3 0x51D DUP5 PUSH3 0x4F4 JUMP JUMPDEST PUSH3 0x4FE JUMP JUMPDEST PUSH3 0x4F4 JUMP JUMPDEST SWAP1 POP SWAP2 SWAP1 POP JUMP JUMPDEST PUSH1 0x0 DUP2 SWAP1 POP SWAP2 SWAP1 POP JUMP JUMPDEST PUSH3 0x545 DUP4 PUSH3 0x508 JUMP JUMPDEST PUSH3 0x55D PUSH3 0x554 DUP3 PUSH3 0x530 JUMP JUMPDEST DUP5 DUP5 SLOAD PUSH3 0x49E JUMP JUMPDEST DUP3 SSTORE POP POP POP POP JUMP JUMPDEST PUSH1 0x0 SWAP1 JUMP JUMPDEST PUSH3 0x574 PUSH3 0x565 JUMP JUMPDEST PUSH3 0x581 DUP2 DUP5 DUP5 PUSH3 0x53A JUMP JUMPDEST POP POP POP JUMP JUMPDEST JUMPDEST DUP2 DUP2 LT ISZERO PUSH3 0x5A9 JUMPI PUSH3 0x59D PUSH1 0x0 DUP3 PUSH3 0x56A JUMP JUMPDEST PUSH1 0x1 DUP2 ADD SWAP1 POP PUSH3 0x587 JUMP JUMPDEST POP POP JUMP JUMPDEST PUSH1 0x1F DUP3 GT ISZERO PUSH3 0x5F8 JUMPI PUSH3 0x5C2 DUP2 PUSH3 0x46C JUMP JUMPDEST PUSH3 0x5CD DUP5 PUSH3 0x481 JUMP JUMPDEST DUP2 ADD PUSH1 0x20 DUP6 LT ISZERO PUSH3 0x5DD JUMPI DUP2 SWAP1 POP JUMPDEST PUSH3 0x5F5 PUSH3 0x5EC DUP6 PUSH3 0x481 JUMP JUMPDEST DUP4 ADD DUP3 PUSH3 0x586 JUMP JUMPDEST POP POP JUMPDEST POP POP POP JUMP JUMPDEST PUSH1 0x0 DUP3 DUP3 SHR SWAP1 POP SWAP3 SWAP2 POP POP JUMP JUMPDEST PUSH1 0x0 PUSH3 0x61D PUSH1 0x0 NOT DUP5 PUSH1 0x8 MUL PUSH3 0x5FD JUMP JUMPDEST NOT DUP1 DUP4 AND SWAP2 POP POP SWAP3 SWAP2 POP POP JUMP JUMPDEST PUSH1 0x0 PUSH3 0x638 DUP4 DUP4 PUSH3 0x60A JUMP JUMPDEST SWAP2 POP DUP3 PUSH1 0x2 MUL DUP3 OR SWAP1 POP SWAP3 SWAP2 POP POP JUMP JUMPDEST PUSH3 0x653 DUP3 PUSH3 0x3CE JUMP JUMPDEST PUSH8 0xFFFFFFFFFFFFFFFF DUP2 GT ISZERO PUSH3 0x66F JUMPI PUSH3 0x66E PUSH3 0x3D9 JUMP JUMPDEST JUMPDEST PUSH3 0x67B DUP3 SLOAD PUSH3 0x437 JUMP JUMPDEST PUSH3 0x688 DUP3 DUP3 DUP6 PUSH3 0x5AD JUMP JUMPDEST PUSH1 0x0 PUSH1 0x20 SWAP1 POP PUSH1 0x1F DUP4 GT PUSH1 0x1 DUP2 EQ PUSH3 0x6C0 JUMPI PUSH1 0x0 DUP5 ISZERO PUSH3 0x6AB JUMPI DUP3 DUP8 ADD MLOAD SWAP1 POP JUMPDEST PUSH3 0x6B7 DUP6 DUP3 PUSH3 0x62A JUMP JUMPDEST DUP7 SSTORE POP PUSH3 0x727 JUMP JUMPDEST PUSH1 0x1F NOT DUP5 AND PUSH3 0x6D0 DUP7 PUSH3 0x46C JUMP JUMPDEST PUSH1 0x0 JUMPDEST DUP3 DUP2 LT ISZERO PUSH3 0x6FA JUMPI DUP5 DUP10 ADD MLOAD DUP3 SSTORE PUSH1 0x1 DUP3 ADD SWAP2 POP PUSH1 0x20 DUP6 ADD SWAP5 POP PUSH1 0x20 DUP2 ADD SWAP1 POP PUSH3 0x6D3 JUMP JUMPDEST DUP7 DUP4 LT ISZERO PUSH3 0x71A JUMPI DUP5 DUP10 ADD MLOAD PUSH3 0x716 PUSH1 0x1F DUP10 AND DUP3 PUSH3 0x60A JUMP JUMPDEST DUP4 SSTORE POP JUMPDEST PUSH1 0x1 PUSH1 0x2 DUP9 MUL ADD DUP9 SSTORE POP POP POP JUMPDEST POP POP POP POP POP POP JUMP JUMPDEST PUSH32 0x6472696E6B696E675F7761746572000000000000000000000000000000000000 PUSH1 0x0 DUP3 ADD MSTORE POP JUMP JUMPDEST PUSH1 0x0 PUSH3 0x767 PUSH1 0xE DUP4 PUSH3 0x35C JUMP JUMPDEST SWAP2 POP PUSH3 0x774 DUP3 PUSH3 0x72F JUMP JUMPDEST PUSH1 0xE DUP3 ADD SWAP1 POP SWAP2 SWAP1 POP JUMP JUMPDEST PUSH1 0x0 PUSH3 0x78C DUP3 PUSH3 0x758 JUMP JUMPDEST SWAP2 POP DUP2 SWAP1 POP SWAP2 SWAP1 POP JUMP JUMPDEST PUSH32 0x736C656570696E67000000000000000000000000000000000000000000000000 PUSH1 0x0 DUP3 ADD MSTORE POP JUMP JUMPDEST PUSH1 0x0 PUSH3 0x7CE PUSH1 0x8 DUP4 PUSH3 0x35C JUMP JUMPDEST SWAP2 POP PUSH3 0x7DB DUP3 PUSH3 0x796 JUMP JUMPDEST PUSH1 0x8 DUP3 ADD SWAP1 POP SWAP2 SWAP1 POP JUMP JUMPDEST PUSH1 0x0 PUSH3 0x7F3 DUP3 PUSH3 0x7BF JUMP JUMPDEST SWAP2 POP DUP2 SWAP1 POP SWAP2 SWAP1 POP JUMP JUMPDEST PUSH32 0x72656164696E675F626F6F6B7300000000000000000000000000000000000000 PUSH1 0x0 DUP3 ADD MSTORE POP JUMP JUMPDEST PUSH1 0x0 PUSH3 0x835 PUSH1 0xD DUP4 PUSH3 0x35C JUMP JUMPDEST SWAP2 POP PUSH3 0x842 DUP3 PUSH3 0x7FD JUMP JUMPDEST PUSH1 0xD DUP3 ADD SWAP1 POP SWAP2 SWAP1 POP JUMP JUMPDEST PUSH1 0x0 PUSH3 0x85A DUP3 PUSH3 0x826 JUMP JUMPDEST SWAP2 POP DUP2 SWAP1 POP SWAP2 SWAP1 POP JUMP JUMPDEST PUSH2 0x2479 DUP1 PUSH3 0x874 PUSH1 0x0 CODECOPY PUSH1 0x0 RETURN INVALID PUSH1 0x80 PUSH1 0x40 MSTORE PUSH1 0x4 CALLDATASIZE LT PUSH2 0xC2 JUMPI PUSH1 0x0 CALLDATALOAD PUSH1 0xE0 SHR DUP1 PUSH4 0x7D0D8BA1 GT PUSH2 0x7F JUMPI DUP1 PUSH4 0xA3EDD71C GT PUSH2 0x59 JUMPI DUP1 PUSH4 0xA3EDD71C EQ PUSH2 0x270 JUMPI DUP1 PUSH4 0xAE71D354 EQ PUSH2 0x2B1 JUMPI DUP1 PUSH4 0xB162212B EQ PUSH2 0x2DA JUMPI DUP1 PUSH4 0xF50DDBC7 EQ PUSH2 0x2F6 JUMPI PUSH2 0xC2 JUMP JUMPDEST DUP1 PUSH4 0x7D0D8BA1 EQ PUSH2 0x1F3 JUMPI DUP1 PUSH4 0x8DA5CB5B EQ PUSH2 0x21C JUMPI DUP1 PUSH4 0x98D0C518 EQ PUSH2 0x247 JUMPI PUSH2 0xC2 JUMP JUMPDEST DUP1 PUSH4 0xE4F98D6 EQ PUSH2 0xC7 JUMPI DUP1 PUSH4 0x2FFF778C EQ PUSH2 0x108 JUMPI DUP1 PUSH4 0x314ADAF2 EQ PUSH2 0x131 JUMPI DUP1 PUSH4 0x5419EF67 EQ PUSH2 0x171 JUMPI DUP1 PUSH4 0x6EEE9731 EQ PUSH2 0x19A JUMPI DUP1 PUSH4 0x719C70C6 EQ PUSH2 0x1D7 JUMPI JUMPDEST PUSH1 0x0 DUP1 REVERT JUMPDEST CALLVALUE DUP1 ISZERO PUSH2 0xD3 JUMPI PUSH1 0x0 DUP1 REVERT JUMPDEST POP PUSH2 0xEE PUSH1 0x4 DUP1 CALLDATASIZE SUB DUP2 ADD SWAP1 PUSH2 0xE9 SWAP2 SWAP1 PUSH2 0x1425 JUMP JUMPDEST PUSH2 0x333 JUMP JUMPDEST PUSH1 0x40 MLOAD PUSH2 0xFF SWAP6 SWAP5 SWAP4 SWAP3 SWAP2 SWAP1 PUSH2 0x1506 JUMP JUMPDEST PUSH1 0x40 MLOAD DUP1 SWAP2 SUB SWAP1 RETURN JUMPDEST CALLVALUE DUP1 ISZERO PUSH2 0x114 JUMPI PUSH1 0x0 DUP1 REVERT JUMPDEST POP PUSH2 0x12F PUSH1 0x4 DUP1 CALLDATASIZE SUB DUP2 ADD SWAP1 PUSH2 0x12A SWAP2 SWAP1 PUSH2 0x158C JUMP JUMPDEST PUSH2 0x407 JUMP JUMPDEST STOP JUMPDEST CALLVALUE DUP1 ISZERO PUSH2 0x13D JUMPI PUSH1 0x0 DUP1 REVERT JUMPDEST POP PUSH2 0x158 PUSH1 0x4 DUP1 CALLDATASIZE SUB DUP2 ADD SWAP1 PUSH2 0x153 SWAP2 SWAP1 PUSH2 0x1425 JUMP JUMPDEST PUSH2 0x4FA JUMP JUMPDEST PUSH1 0x40 MLOAD PUSH2 0x168 SWAP5 SWAP4 SWAP3 SWAP2 SWAP1 PUSH2 0x163E JUMP JUMPDEST PUSH1 0x40 MLOAD DUP1 SWAP2 SUB SWAP1 RETURN JUMPDEST CALLVALUE DUP1 ISZERO PUSH2 0x17D JUMPI PUSH1 0x0 DUP1 REVERT JUMPDEST POP PUSH2 0x198 PUSH1 0x4 DUP1 CALLDATASIZE SUB DUP2 ADD SWAP1 PUSH2 0x193 SWAP2 SWAP1 PUSH2 0x1425 JUMP JUMPDEST PUSH2 0x5D5 JUMP JUMPDEST STOP JUMPDEST CALLVALUE DUP1 ISZERO PUSH2 0x1A6 JUMPI PUSH1 0x0 DUP1 REVERT JUMPDEST POP PUSH2 0x1C1 PUSH1 0x4 DUP1 CALLDATASIZE SUB DUP2 ADD SWAP1 PUSH2 0x1BC SWAP2 SWAP1 PUSH2 0x1425 JUMP JUMPDEST PUSH2 0x71B JUMP JUMPDEST PUSH1 0x40 MLOAD PUSH2 0x1CE SWAP2 SWAP1 PUSH2 0x177A JUMP JUMPDEST PUSH1 0x40 MLOAD DUP1 SWAP2 SUB SWAP1 RETURN JUMPDEST PUSH2 0x1F1 PUSH1 0x4 DUP1 CALLDATASIZE SUB DUP2 ADD SWAP1 PUSH2 0x1EC SWAP2 SWAP1 PUSH2 0x1882 JUMP JUMPDEST PUSH2 0x7CA JUMP JUMPDEST STOP JUMPDEST CALLVALUE DUP1 ISZERO PUSH2 0x1FF JUMPI PUSH1 0x0 DUP1 REVERT JUMPDEST POP PUSH2 0x21A PUSH1 0x4 DUP1 CALLDATASIZE SUB DUP2 ADD SWAP1 PUSH2 0x215 SWAP2 SWAP1 PUSH2 0x1425 JUMP JUMPDEST PUSH2 0x9DD JUMP JUMPDEST STOP JUMPDEST CALLVALUE DUP1 ISZERO PUSH2 0x228 JUMPI PUSH1 0x0 DUP1 REVERT JUMPDEST POP PUSH2 0x231 PUSH2 0xBE7 JUMP JUMPDEST PUSH1 0x40 MLOAD PUSH2 0x23E SWAP2 SWAP1 PUSH2 0x1930 JUMP JUMPDEST PUSH1 0x40 MLOAD DUP1 SWAP2 SUB SWAP1 RETURN JUMPDEST CALLVALUE DUP1 ISZERO PUSH2 0x253 JUMPI PUSH1 0x0 DUP1 REVERT JUMPDEST POP PUSH2 0x26E PUSH1 0x4 DUP1 CALLDATASIZE SUB DUP2 ADD SWAP1 PUSH2 0x269 SWAP2 SWAP1 PUSH2 0x1425 JUMP JUMPDEST PUSH2 0xC0B JUMP JUMPDEST STOP JUMPDEST CALLVALUE DUP1 ISZERO PUSH2 0x27C JUMPI PUSH1 0x0 DUP1 REVERT JUMPDEST POP PUSH2 0x297 PUSH1 0x4 DUP1 CALLDATASIZE SUB DUP2 ADD SWAP1 PUSH2 0x292 SWAP2 SWAP1 PUSH2 0x1425 JUMP JUMPDEST PUSH2 0xD4B JUMP JUMPDEST PUSH1 0x40 MLOAD PUSH2 0x2A8 SWAP6 SWAP5 SWAP4 SWAP3 SWAP2 SWAP1 PUSH2 0x1506 JUMP JUMPDEST PUSH1 0x40 MLOAD DUP1 SWAP2 SUB SWAP1 RETURN JUMPDEST CALLVALUE DUP1 ISZERO PUSH2 0x2BD JUMPI PUSH1 0x0 DUP1 REVERT JUMPDEST POP PUSH2 0x2D8 PUSH1 0x4 DUP1 CALLDATASIZE SUB DUP2 ADD SWAP1 PUSH2 0x2D3 SWAP2 SWAP1 PUSH2 0x1425 JUMP JUMPDEST PUSH2 0xE1F JUMP JUMPDEST STOP JUMPDEST PUSH2 0x2F4 PUSH1 0x4 DUP1 CALLDATASIZE SUB DUP2 ADD SWAP1 PUSH2 0x2EF SWAP2 SWAP1 PUSH2 0x1425 JUMP JUMPDEST PUSH2 0xF7B JUMP JUMPDEST STOP JUMPDEST CALLVALUE DUP1 ISZERO PUSH2 0x302 JUMPI PUSH1 0x0 DUP1 REVERT JUMPDEST POP PUSH2 0x31D PUSH1 0x4 DUP1 CALLDATASIZE SUB DUP2 ADD SWAP1 PUSH2 0x318 SWAP2 SWAP1 PUSH2 0x1977 JUMP JUMPDEST PUSH2 0x12B3 JUMP JUMPDEST PUSH1 0x40 MLOAD PUSH2 0x32A SWAP2 SWAP1 PUSH2 0x19A4 JUMP JUMPDEST PUSH1 0x40 MLOAD DUP1 SWAP2 SUB SWAP1 RETURN JUMPDEST PUSH1 0x1 DUP2 DUP1 MLOAD PUSH1 0x20 DUP2 ADD DUP3 ADD DUP1 MLOAD DUP5 DUP3 MSTORE PUSH1 0x20 DUP4 ADD PUSH1 0x20 DUP6 ADD KECCAK256 DUP2 DUP4 MSTORE DUP1 SWAP6 POP POP POP POP POP POP PUSH1 0x0 SWAP2 POP SWAP1 POP DUP1 PUSH1 0x0 ADD DUP1 SLOAD PUSH2 0x36C SWAP1 PUSH2 0x19EE JUMP JUMPDEST DUP1 PUSH1 0x1F ADD PUSH1 0x20 DUP1 SWAP2 DIV MUL PUSH1 0x20 ADD PUSH1 0x40 MLOAD SWAP1 DUP2 ADD PUSH1 0x40 MSTORE DUP1 SWAP3 SWAP2 SWAP1 DUP2 DUP2 MSTORE PUSH1 0x20 ADD DUP3 DUP1 SLOAD PUSH2 0x398 SWAP1 PUSH2 0x19EE JUMP JUMPDEST DUP1 ISZERO PUSH2 0x3E5 JUMPI DUP1 PUSH1 0x1F LT PUSH2 0x3BA JUMPI PUSH2 0x100 DUP1 DUP4 SLOAD DIV MUL DUP4 MSTORE SWAP2 PUSH1 0x20 ADD SWAP2 PUSH2 0x3E5 JUMP JUMPDEST DUP3 ADD SWAP2 SWAP1 PUSH1 0x0 MSTORE PUSH1 0x20 PUSH1 0x0 KECCAK256 SWAP1 JUMPDEST DUP2 SLOAD DUP2 MSTORE SWAP1 PUSH1 0x1 ADD SWAP1 PUSH1 0x20 ADD DUP1 DUP4 GT PUSH2 0x3C8 JUMPI DUP3 SWAP1 SUB PUSH1 0x1F AND DUP3 ADD SWAP2 JUMPDEST POP POP POP POP POP SWAP1 DUP1 PUSH1 0x1 ADD SLOAD SWAP1 DUP1 PUSH1 0x2 ADD SLOAD SWAP1 DUP1 PUSH1 0x3 ADD SLOAD SWAP1 DUP1 PUSH1 0x4 ADD SLOAD SWAP1 POP DUP6 JUMP JUMPDEST PUSH1 0x0 PUSH1 0x40 MLOAD DUP1 PUSH1 0xA0 ADD PUSH1 0x40 MSTORE DUP1 DUP8 DUP2 MSTORE PUSH1 0x20 ADD DUP7 DUP2 MSTORE PUSH1 0x20 ADD DUP6 DUP2 MSTORE PUSH1 0x20 ADD DUP5 DUP2 MSTORE PUSH1 0x20 ADD DUP4 DUP2 MSTORE POP SWAP1 POP DUP1 PUSH1 0x1 DUP8 PUSH1 0x40 MLOAD PUSH2 0x443 SWAP2 SWAP1 PUSH2 0x1A5B JUMP JUMPDEST SWAP1 DUP2 MSTORE PUSH1 0x20 ADD PUSH1 0x40 MLOAD DUP1 SWAP2 SUB SWAP1 KECCAK256 PUSH1 0x0 DUP3 ADD MLOAD DUP2 PUSH1 0x0 ADD SWAP1 DUP2 PUSH2 0x466 SWAP2 SWAP1 PUSH2 0x1C1E JUMP JUMPDEST POP PUSH1 0x20 DUP3 ADD MLOAD DUP2 PUSH1 0x1 ADD SSTORE PUSH1 0x40 DUP3 ADD MLOAD DUP2 PUSH1 0x2 ADD SSTORE PUSH1 0x60 DUP3 ADD MLOAD DUP2 PUSH1 0x3 ADD SSTORE PUSH1 0x80 DUP3 ADD MLOAD DUP2 PUSH1 0x4 ADD SSTORE SWAP1 POP POP DUP1 PUSH1 0x2 DUP8 PUSH1 0x40 MLOAD PUSH2 0x4A3 SWAP2 SWAP1 PUSH2 0x1A5B JUMP JUMPDEST SWAP1 DUP2 MSTORE PUSH1 0x20 ADD PUSH1 0x40 MLOAD DUP1 SWAP2 SUB SWAP1 KECCAK256 PUSH1 0x0 DUP3 ADD MLOAD DUP2 PUSH1 0x0 ADD SWAP1 DUP2 PUSH2 0x4C6 SWAP2 SWAP1 PUSH2 0x1C1E JUMP JUMPDEST POP PUSH1 0x20 DUP3 ADD MLOAD DUP2 PUSH1 0x1 ADD SSTORE PUSH1 0x40 DUP3 ADD MLOAD DUP2 PUSH1 0x2 ADD SSTORE PUSH1 0x60 DUP3 ADD MLOAD DUP2 PUSH1 0x3 ADD SSTORE PUSH1 0x80 DUP3 ADD MLOAD DUP2 PUSH1 0x4 ADD SSTORE SWAP1 POP POP POP POP POP POP POP POP JUMP JUMPDEST PUSH1 0x4 DUP2 DUP1 MLOAD PUSH1 0x20 DUP2 ADD DUP3 ADD DUP1 MLOAD DUP5 DUP3 MSTORE PUSH1 0x20 DUP4 ADD PUSH1 0x20 DUP6 ADD KECCAK256 DUP2 DUP4 MSTORE DUP1 SWAP6 POP POP POP POP POP POP PUSH1 0x0 SWAP2 POP SWAP1 POP DUP1 PUSH1 0x0 ADD DUP1 SLOAD PUSH2 0x533 SWAP1 PUSH2 0x19EE JUMP JUMPDEST DUP1 PUSH1 0x1F ADD PUSH1 0x20 DUP1 SWAP2 DIV MUL PUSH1 0x20 ADD PUSH1 0x40 MLOAD SWAP1 DUP2 ADD PUSH1 0x40 MSTORE DUP1 SWAP3 SWAP2 SWAP1 DUP2 DUP2 MSTORE PUSH1 0x20 ADD DUP3 DUP1 SLOAD PUSH2 0x55F SWAP1 PUSH2 0x19EE JUMP JUMPDEST DUP1 ISZERO PUSH2 0x5AC JUMPI DUP1 PUSH1 0x1F LT PUSH2 0x581 JUMPI PUSH2 0x100 DUP1 DUP4 SLOAD DIV MUL DUP4 MSTORE SWAP2 PUSH1 0x20 ADD SWAP2 PUSH2 0x5AC JUMP JUMPDEST DUP3 ADD SWAP2 SWAP1 PUSH1 0x0 MSTORE PUSH1 0x20 PUSH1 0x0 KECCAK256 SWAP1 JUMPDEST DUP2 SLOAD DUP2 MSTORE SWAP1 PUSH1 0x1 ADD SWAP1 PUSH1 0x20 ADD DUP1 DUP4 GT PUSH2 0x58F JUMPI DUP3 SWAP1 SUB PUSH1 0x1F AND DUP3 ADD SWAP2 JUMPDEST POP POP POP POP POP SWAP1 DUP1 PUSH1 0x1 ADD SLOAD SWAP1 DUP1 PUSH1 0x2 ADD SLOAD SWAP1 DUP1 PUSH1 0x7 ADD PUSH1 0x0 SWAP1 SLOAD SWAP1 PUSH2 0x100 EXP SWAP1 DIV PUSH1 0xFF AND SWAP1 POP DUP5 JUMP JUMPDEST PUSH1 0x0 DUP1 SLOAD SWAP1 PUSH2 0x100 EXP SWAP1 DIV PUSH20 0xFFFFFFFFFFFFFFFFFFFFFFFFFFFFFFFFFFFFFFFF AND PUSH20 0xFFFFFFFFFFFFFFFFFFFFFFFFFFFFFFFFFFFFFFFF AND CALLER PUSH20 0xFFFFFFFFFFFFFFFFFFFFFFFFFFFFFFFFFFFFFFFF AND EQ PUSH2 0x663 JUMPI PUSH1 0x40 MLOAD PUSH32 0x8C379A000000000000000000000000000000000000000000000000000000000 DUP2 MSTORE PUSH1 0x4 ADD PUSH2 0x65A SWAP1 PUSH2 0x1D62 JUMP JUMPDEST PUSH1 0x40 MLOAD DUP1 SWAP2 SUB SWAP1 REVERT JUMPDEST DUP1 DUP1 MLOAD SWAP1 PUSH1 0x20 ADD KECCAK256 PUSH1 0x2 DUP3 PUSH1 0x40 MLOAD PUSH2 0x67B SWAP2 SWAP1 PUSH2 0x1A5B JUMP JUMPDEST SWAP1 DUP2 MSTORE PUSH1 0x20 ADD PUSH1 0x40 MLOAD DUP1 SWAP2 SUB SWAP1 KECCAK256 PUSH1 0x0 ADD PUSH1 0x40 MLOAD PUSH2 0x699 SWAP2 SWAP1 PUSH2 0x1E25 JUMP JUMPDEST PUSH1 0x40 MLOAD DUP1 SWAP2 SUB SWAP1 KECCAK256 EQ PUSH2 0x6E1 JUMPI PUSH1 0x40 MLOAD PUSH32 0x8C379A000000000000000000000000000000000000000000000000000000000 DUP2 MSTORE PUSH1 0x4 ADD PUSH2 0x6D8 SWAP1 PUSH2 0x1E88 JUMP JUMPDEST PUSH1 0x40 MLOAD DUP1 SWAP2 SUB SWAP1 REVERT JUMPDEST PUSH1 0x1 DUP2 PUSH1 0x40 MLOAD PUSH2 0x6F1 SWAP2 SWAP1 PUSH2 0x1A5B JUMP JUMPDEST SWAP1 DUP2 MSTORE PUSH1 0x20 ADD PUSH1 0x40 MLOAD DUP1 SWAP2 SUB SWAP1 KECCAK256 PUSH1 0x3 ADD PUSH1 0x0 DUP2 SLOAD DUP1 SWAP3 SWAP2 SWAP1 PUSH2 0x713 SWAP1 PUSH2 0x1ED7 JUMP JUMPDEST SWAP2 SWAP1 POP SSTORE POP POP JUMP JUMPDEST PUSH1 0x60 PUSH1 0x4 DUP3 PUSH1 0x40 MLOAD PUSH2 0x72D SWAP2 SWAP1 PUSH2 0x1A5B JUMP JUMPDEST SWAP1 DUP2 MSTORE PUSH1 0x20 ADD PUSH1 0x40 MLOAD DUP1 SWAP2 SUB SWAP1 KECCAK256 PUSH1 0x6 ADD DUP1 SLOAD DUP1 PUSH1 0x20 MUL PUSH1 0x20 ADD PUSH1 0x40 MLOAD SWAP1 DUP2 ADD PUSH1 0x40 MSTORE DUP1 SWAP3 SWAP2 SWAP1 DUP2 DUP2 MSTORE PUSH1 0x20 ADD DUP3 DUP1 SLOAD DUP1 ISZERO PUSH2 0x7BE JUMPI PUSH1 0x20 MUL DUP3 ADD SWAP2 SWAP1 PUSH1 0x0 MSTORE PUSH1 0x20 PUSH1 0x0 KECCAK256 SWAP1 JUMPDEST DUP2 PUSH1 0x0 SWAP1 SLOAD SWAP1 PUSH2 0x100 EXP SWAP1 DIV PUSH20 0xFFFFFFFFFFFFFFFFFFFFFFFFFFFFFFFFFFFFFFFF AND PUSH20 0xFFFFFFFFFFFFFFFFFFFFFFFFFFFFFFFFFFFFFFFF AND DUP2 MSTORE PUSH1 0x20 ADD SWAP1 PUSH1 0x1 ADD SWAP1 DUP1 DUP4 GT PUSH2 0x774 JUMPI JUMPDEST POP POP POP POP POP SWAP1 POP SWAP2 SWAP1 POP JUMP JUMPDEST DUP2 CALLVALUE EQ PUSH2 0x80C JUMPI PUSH1 0x40 MLOAD PUSH32 0x8C379A000000000000000000000000000000000000000000000000000000000 DUP2 MSTORE PUSH1 0x4 ADD PUSH2 0x803 SWAP1 PUSH2 0x1F72 JUMP JUMPDEST PUSH1 0x40 MLOAD DUP1 SWAP2 SUB SWAP1 REVERT JUMPDEST PUSH1 0x0 PUSH1 0x4 DUP6 PUSH1 0x40 MLOAD PUSH2 0x81E SWAP2 SWAP1 PUSH2 0x1A5B JUMP JUMPDEST SWAP1 DUP2 MSTORE PUSH1 0x20 ADD PUSH1 0x40 MLOAD DUP1 SWAP2 SUB SWAP1 KECCAK256 SWAP1 POP DUP5 DUP2 PUSH1 0x0 ADD SWAP1 DUP2 PUSH2 0x83F SWAP2 SWAP1 PUSH2 0x1C1E JUMP JUMPDEST POP DUP4 DUP2 PUSH1 0x1 ADD DUP2 SWAP1 SSTORE POP DUP3 DUP2 PUSH1 0x2 ADD DUP2 SWAP1 SSTORE POP PUSH1 0x1 DUP2 PUSH1 0x3 ADD PUSH1 0x0 CALLER PUSH20 0xFFFFFFFFFFFFFFFFFFFFFFFFFFFFFFFFFFFFFFFF AND PUSH20 0xFFFFFFFFFFFFFFFFFFFFFFFFFFFFFFFFFFFFFFFF AND DUP2 MSTORE PUSH1 0x20 ADD SWAP1 DUP2 MSTORE PUSH1 0x20 ADD PUSH1 0x0 KECCAK256 PUSH1 0x0 PUSH2 0x100 EXP DUP2 SLOAD DUP2 PUSH1 0xFF MUL NOT AND SWAP1 DUP4 ISZERO ISZERO MUL OR SWAP1 SSTORE POP DUP3 DUP2 PUSH1 0x4 ADD PUSH1 0x0 CALLER PUSH20 0xFFFFFFFFFFFFFFFFFFFFFFFFFFFFFFFFFFFFFFFF AND PUSH20 0xFFFFFFFFFFFFFFFFFFFFFFFFFFFFFFFFFFFFFFFF AND DUP2 MSTORE PUSH1 0x20 ADD SWAP1 DUP2 MSTORE PUSH1 0x20 ADD PUSH1 0x0 KECCAK256 PUSH1 0x0 DUP3 DUP3 SLOAD PUSH2 0x8FD SWAP2 SWAP1 PUSH2 0x1F92 JUMP JUMPDEST SWAP3 POP POP DUP2 SWAP1 SSTORE POP DUP1 PUSH1 0x6 ADD CALLER SWAP1 DUP1 PUSH1 0x1 DUP2 SLOAD ADD DUP1 DUP3 SSTORE DUP1 SWAP2 POP POP PUSH1 0x1 SWAP1 SUB SWAP1 PUSH1 0x0 MSTORE PUSH1 0x20 PUSH1 0x0 KECCAK256 ADD PUSH1 0x0 SWAP1 SWAP2 SWAP1 SWAP2 SWAP1 SWAP2 PUSH2 0x100 EXP DUP2 SLOAD DUP2 PUSH20 0xFFFFFFFFFFFFFFFFFFFFFFFFFFFFFFFFFFFFFFFF MUL NOT AND SWAP1 DUP4 PUSH20 0xFFFFFFFFFFFFFFFFFFFFFFFFFFFFFFFFFFFFFFFF AND MUL OR SWAP1 SSTORE POP PUSH1 0x0 JUMPDEST DUP3 MLOAD DUP2 LT ISZERO PUSH2 0x9D5 JUMPI PUSH1 0x1 DUP3 PUSH1 0x5 ADD DUP5 DUP4 DUP2 MLOAD DUP2 LT PUSH2 0x98E JUMPI PUSH2 0x98D PUSH2 0x1FC6 JUMP JUMPDEST JUMPDEST PUSH1 0x20 MUL PUSH1 0x20 ADD ADD MLOAD PUSH1 0x40 MLOAD PUSH2 0x9A3 SWAP2 SWAP1 PUSH2 0x1A5B JUMP JUMPDEST SWAP1 DUP2 MSTORE PUSH1 0x20 ADD PUSH1 0x40 MLOAD DUP1 SWAP2 SUB SWAP1 KECCAK256 PUSH1 0x0 PUSH2 0x100 EXP DUP2 SLOAD DUP2 PUSH1 0xFF MUL NOT AND SWAP1 DUP4 ISZERO ISZERO MUL OR SWAP1 SSTORE POP DUP1 DUP1 PUSH1 0x1 ADD SWAP2 POP POP PUSH2 0x96C JUMP JUMPDEST POP POP POP POP POP POP JUMP JUMPDEST PUSH1 0x1 ISZERO ISZERO PUSH1 0x4 DUP3 PUSH1 0x40 MLOAD PUSH2 0x9F1 SWAP2 SWAP1 PUSH2 0x1A5B JUMP JUMPDEST SWAP1 DUP2 MSTORE PUSH1 0x20 ADD PUSH1 0x40 MLOAD DUP1 SWAP2 SUB SWAP1 KECCAK256 PUSH1 0x7 ADD PUSH1 0x0 SWAP1 SLOAD SWAP1 PUSH2 0x100 EXP SWAP1 DIV PUSH1 0xFF AND ISZERO ISZERO EQ PUSH2 0xA52 JUMPI PUSH1 0x40 MLOAD PUSH32 0x8C379A000000000000000000000000000000000000000000000000000000000 DUP2 MSTORE PUSH1 0x4 ADD PUSH2 0xA49 SWAP1 PUSH2 0x2041 JUMP JUMPDEST PUSH1 0x40 MLOAD DUP1 SWAP2 SUB SWAP1 REVERT JUMPDEST PUSH1 0x1 ISZERO ISZERO PUSH1 0x4 DUP3 PUSH1 0x40 MLOAD PUSH2 0xA66 SWAP2 SWAP1 PUSH2 0x1A5B JUMP JUMPDEST SWAP1 DUP2 MSTORE PUSH1 0x20 ADD PUSH1 0x40 MLOAD DUP1 SWAP2 SUB SWAP1 KECCAK256 PUSH1 0x3 ADD PUSH1 0x0 CALLER PUSH20 0xFFFFFFFFFFFFFFFFFFFFFFFFFFFFFFFFFFFFFFFF AND PUSH20 0xFFFFFFFFFFFFFFFFFFFFFFFFFFFFFFFFFFFFFFFF AND DUP2 MSTORE PUSH1 0x20 ADD SWAP1 DUP2 MSTORE PUSH1 0x20 ADD PUSH1 0x0 KECCAK256 PUSH1 0x0 SWAP1 SLOAD SWAP1 PUSH2 0x100 EXP SWAP1 DIV PUSH1 0xFF AND ISZERO ISZERO EQ PUSH2 0xB04 JUMPI PUSH1 0x40 MLOAD PUSH32 0x8C379A000000000000000000000000000000000000000000000000000000000 DUP2 MSTORE PUSH1 0x4 ADD PUSH2 0xAFB SWAP1 PUSH2 0x20AD JUMP JUMPDEST PUSH1 0x40 MLOAD DUP1 SWAP2 SUB SWAP1 REVERT JUMPDEST PUSH1 0x0 PUSH1 0x4 DUP3 PUSH1 0x40 MLOAD PUSH2 0xB16 SWAP2 SWAP1 PUSH2 0x1A5B JUMP JUMPDEST SWAP1 DUP2 MSTORE PUSH1 0x20 ADD PUSH1 0x40 MLOAD DUP1 SWAP2 SUB SWAP1 KECCAK256 SWAP1 POP PUSH1 0x0 DUP2 PUSH1 0x6 ADD DUP1 SLOAD SWAP1 POP SWAP1 POP PUSH1 0x0 DUP2 DUP4 PUSH1 0x2 ADD SLOAD PUSH2 0xB44 SWAP2 SWAP1 PUSH2 0x20CD JUMP JUMPDEST SWAP1 POP PUSH1 0x0 DUP3 GT PUSH2 0xB89 JUMPI PUSH1 0x40 MLOAD PUSH32 0x8C379A000000000000000000000000000000000000000000000000000000000 DUP2 MSTORE PUSH1 0x4 ADD PUSH2 0xB80 SWAP1 PUSH2 0x2181 JUMP JUMPDEST PUSH1 0x40 MLOAD DUP1 SWAP2 SUB SWAP1 REVERT JUMPDEST PUSH1 0x0 DUP3 DUP3 PUSH2 0xB97 SWAP2 SWAP1 PUSH2 0x21D0 JUMP JUMPDEST SWAP1 POP CALLER PUSH20 0xFFFFFFFFFFFFFFFFFFFFFFFFFFFFFFFFFFFFFFFF AND PUSH2 0x8FC DUP3 SWAP1 DUP2 ISZERO MUL SWAP1 PUSH1 0x40 MLOAD PUSH1 0x0 PUSH1 0x40 MLOAD DUP1 DUP4 SUB DUP2 DUP6 DUP9 DUP9 CALL SWAP4 POP POP POP POP ISZERO DUP1 ISZERO PUSH2 0xBDF JUMPI RETURNDATASIZE PUSH1 0x0 DUP1 RETURNDATACOPY RETURNDATASIZE PUSH1 0x0 REVERT JUMPDEST POP POP POP POP POP POP JUMP JUMPDEST PUSH1 0x0 DUP1 SLOAD SWAP1 PUSH2 0x100 EXP SWAP1 DIV PUSH20 0xFFFFFFFFFFFFFFFFFFFFFFFFFFFFFFFFFFFFFFFF AND DUP2 JUMP JUMPDEST PUSH1 0x0 DUP1 SLOAD SWAP1 PUSH2 0x100 EXP SWAP1 DIV PUSH20 0xFFFFFFFFFFFFFFFFFFFFFFFFFFFFFFFFFFFFFFFF AND PUSH20 0xFFFFFFFFFFFFFFFFFFFFFFFFFFFFFFFFFFFFFFFF AND CALLER PUSH20 0xFFFFFFFFFFFFFFFFFFFFFFFFFFFFFFFFFFFFFFFF AND EQ PUSH2 0xC99 JUMPI PUSH1 0x40 MLOAD PUSH32 0x8C379A000000000000000000000000000000000000000000000000000000000 DUP2 MSTORE PUSH1 0x4 ADD PUSH2 0xC90 SWAP1 PUSH2 0x1D62 JUMP JUMPDEST PUSH1 0x40 MLOAD DUP1 SWAP2 SUB SWAP1 REVERT JUMPDEST PUSH1 0x0 ISZERO ISZERO PUSH1 0x4 DUP3 PUSH1 0x40 MLOAD PUSH2 0xCAD SWAP2 SWAP1 PUSH2 0x1A5B JUMP JUMPDEST SWAP1 DUP2 MSTORE PUSH1 0x20 ADD PUSH1 0x40 MLOAD DUP1 SWAP2 SUB SWAP1 KECCAK256 PUSH1 0x7 ADD PUSH1 0x0 SWAP1 SLOAD SWAP1 PUSH2 0x100 EXP SWAP1 DIV PUSH1 0xFF AND ISZERO ISZERO EQ PUSH2 0xD0E JUMPI PUSH1 0x40 MLOAD PUSH32 0x8C379A000000000000000000000000000000000000000000000000000000000 DUP2 MSTORE PUSH1 0x4 ADD PUSH2 0xD05 SWAP1 PUSH2 0x224D JUMP JUMPDEST PUSH1 0x40 MLOAD DUP1 SWAP2 SUB SWAP1 REVERT JUMPDEST PUSH1 0x1 PUSH1 0x4 DUP3 PUSH1 0x40 MLOAD PUSH2 0xD20 SWAP2 SWAP1 PUSH2 0x1A5B JUMP JUMPDEST SWAP1 DUP2 MSTORE PUSH1 0x20 ADD PUSH1 0x40 MLOAD DUP1 SWAP2 SUB SWAP1 KECCAK256 PUSH1 0x7 ADD PUSH1 0x0 PUSH2 0x100 EXP DUP2 SLOAD DUP2 PUSH1 0xFF MUL NOT AND SWAP1 DUP4 ISZERO ISZERO MUL OR SWAP1 SSTORE POP POP JUMP JUMPDEST PUSH1 0x2 DUP2 DUP1 MLOAD PUSH1 0x20 DUP2 ADD DUP3 ADD DUP1 MLOAD DUP5 DUP3 MSTORE PUSH1 0x20 DUP4 ADD PUSH1 0x20 DUP6 ADD KECCAK256 DUP2 DUP4 MSTORE DUP1 SWAP6 POP POP POP POP POP POP PUSH1 0x0 SWAP2 POP SWAP1 POP DUP1 PUSH1 0x0 ADD DUP1 SLOAD PUSH2 0xD84 SWAP1 PUSH2 0x19EE JUMP JUMPDEST DUP1 PUSH1 0x1F ADD PUSH1 0x20 DUP1 SWAP2 DIV MUL PUSH1 0x20 ADD PUSH1 0x40 MLOAD SWAP1 DUP2 ADD PUSH1 0x40 MSTORE DUP1 SWAP3 SWAP2 SWAP1 DUP2 DUP2 MSTORE PUSH1 0x20 ADD DUP3 DUP1 SLOAD PUSH2 0xDB0 SWAP1 PUSH2 0x19EE JUMP JUMPDEST DUP1 ISZERO PUSH2 0xDFD JUMPI DUP1 PUSH1 0x1F LT PUSH2 0xDD2 JUMPI PUSH2 0x100 DUP1 DUP4 SLOAD DIV MUL DUP4 MSTORE SWAP2 PUSH1 0x20 ADD SWAP2 PUSH2 0xDFD JUMP JUMPDEST DUP3 ADD SWAP2 SWAP1 PUSH1 0x0 MSTORE PUSH1 0x20 PUSH1 0x0 KECCAK256 SWAP1 JUMPDEST DUP2 SLOAD DUP2 MSTORE SWAP1 PUSH1 0x1 ADD SWAP1 PUSH1 0x20 ADD DUP1 DUP4 GT PUSH2 0xDE0 JUMPI DUP3 SWAP1 SUB PUSH1 0x1F AND DUP3 ADD SWAP2 JUMPDEST POP POP POP POP POP SWAP1 DUP1 PUSH1 0x1 ADD SLOAD SWAP1 DUP1 PUSH1 0x2 ADD SLOAD SWAP1 DUP1 PUSH1 0x3 ADD SLOAD SWAP1 DUP1 PUSH1 0x4 ADD SLOAD SWAP1 POP DUP6 JUMP JUMPDEST DUP1 DUP1 MLOAD SWAP1 PUSH1 0x20 ADD KECCAK256 PUSH1 0x2 DUP3 PUSH1 0x40 MLOAD PUSH2 0xE37 SWAP2 SWAP1 PUSH2 0x1A5B JUMP JUMPDEST SWAP1 DUP2 MSTORE PUSH1 0x20 ADD PUSH1 0x40 MLOAD DUP1 SWAP2 SUB SWAP1 KECCAK256 PUSH1 0x0 ADD PUSH1 0x40 MLOAD PUSH2 0xE55 SWAP2 SWAP1 PUSH2 0x1E25 JUMP JUMPDEST PUSH1 0x40 MLOAD DUP1 SWAP2 SUB SWAP1 KECCAK256 EQ PUSH2 0xE9D JUMPI PUSH1 0x40 MLOAD PUSH32 0x8C379A000000000000000000000000000000000000000000000000000000000 DUP2 MSTORE PUSH1 0x4 ADD PUSH2 0xE94 SWAP1 PUSH2 0x1E88 JUMP JUMPDEST PUSH1 0x40 MLOAD DUP1 SWAP2 SUB SWAP1 REVERT JUMPDEST PUSH1 0x0 PUSH1 0x1 DUP3 PUSH1 0x40 MLOAD PUSH2 0xEAF SWAP2 SWAP1 PUSH2 0x1A5B JUMP JUMPDEST SWAP1 DUP2 MSTORE PUSH1 0x20 ADD PUSH1 0x40 MLOAD DUP1 SWAP2 SUB SWAP1 KECCAK256 PUSH1 0x3 ADD SLOAD EQ PUSH2 0xF01 JUMPI PUSH1 0x40 MLOAD PUSH32 0x8C379A000000000000000000000000000000000000000000000000000000000 DUP2 MSTORE PUSH1 0x4 ADD PUSH2 0xEF8 SWAP1 PUSH2 0x22B9 JUMP JUMPDEST PUSH1 0x40 MLOAD DUP1 SWAP2 SUB SWAP1 REVERT JUMPDEST PUSH1 0x1 DUP2 PUSH1 0x40 MLOAD PUSH2 0xF11 SWAP2 SWAP1 PUSH2 0x1A5B JUMP JUMPDEST SWAP1 DUP2 MSTORE PUSH1 0x20 ADD PUSH1 0x40 MLOAD DUP1 SWAP2 SUB SWAP1 KECCAK256 PUSH1 0x4 ADD SLOAD PUSH1 0x3 PUSH1 0x0 CALLER PUSH20 0xFFFFFFFFFFFFFFFFFFFFFFFFFFFFFFFFFFFFFFFF AND PUSH20 0xFFFFFFFFFFFFFFFFFFFFFFFFFFFFFFFFFFFFFFFF AND DUP2 MSTORE PUSH1 0x20 ADD SWAP1 DUP2 MSTORE PUSH1 0x20 ADD PUSH1 0x0 KECCAK256 PUSH1 0x0 DUP3 DUP3 SLOAD PUSH2 0xF71 SWAP2 SWAP1 PUSH2 0x1F92 JUMP JUMPDEST SWAP3 POP POP DUP2 SWAP1 SSTORE POP POP JUMP JUMPDEST PUSH1 0x0 ISZERO ISZERO PUSH1 0x4 DUP3 PUSH1 0x40 MLOAD PUSH2 0xF8F SWAP2 SWAP1 PUSH2 0x1A5B JUMP JUMPDEST SWAP1 DUP2 MSTORE PUSH1 0x20 ADD PUSH1 0x40 MLOAD DUP1 SWAP2 SUB SWAP1 KECCAK256 PUSH1 0x3 ADD PUSH1 0x0 CALLER PUSH20 0xFFFFFFFFFFFFFFFFFFFFFFFFFFFFFFFFFFFFFFFF AND PUSH20 0xFFFFFFFFFFFFFFFFFFFFFFFFFFFFFFFFFFFFFFFF AND DUP2 MSTORE PUSH1 0x20 ADD SWAP1 DUP2 MSTORE PUSH1 0x20 ADD PUSH1 0x0 KECCAK256 PUSH1 0x0 SWAP1 SLOAD SWAP1 PUSH2 0x100 EXP SWAP1 DIV PUSH1 0xFF AND ISZERO ISZERO EQ PUSH2 0x102D JUMPI PUSH1 0x40 MLOAD PUSH32 0x8C379A000000000000000000000000000000000000000000000000000000000 DUP2 MSTORE PUSH1 0x4 ADD PUSH2 0x1024 SWAP1 PUSH2 0x2325 JUMP JUMPDEST PUSH1 0x40 MLOAD DUP1 SWAP2 SUB SWAP1 REVERT JUMPDEST PUSH1 0x0 PUSH1 0x4 DUP3 PUSH1 0x40 MLOAD PUSH2 0x103F SWAP2 SWAP1 PUSH2 0x1A5B JUMP JUMPDEST SWAP1 DUP2 MSTORE PUSH1 0x20 ADD PUSH1 0x40 MLOAD DUP1 SWAP2 SUB SWAP1 KECCAK256 PUSH1 0x6 ADD DUP1 SLOAD SWAP1 POP SWAP1 POP PUSH1 0x4 DUP3 PUSH1 0x40 MLOAD PUSH2 0x1066 SWAP2 SWAP1 PUSH2 0x1A5B JUMP JUMPDEST SWAP1 DUP2 MSTORE PUSH1 0x20 ADD PUSH1 0x40 MLOAD DUP1 SWAP2 SUB SWAP1 KECCAK256 PUSH1 0x2 ADD SLOAD DUP2 PUSH1 0x4 DUP5 PUSH1 0x40 MLOAD PUSH2 0x1089 SWAP2 SWAP1 PUSH2 0x1A5B JUMP JUMPDEST SWAP1 DUP2 MSTORE PUSH1 0x20 ADD PUSH1 0x40 MLOAD DUP1 SWAP2 SUB SWAP1 KECCAK256 PUSH1 0x2 ADD SLOAD PUSH2 0x10A5 SWAP2 SWAP1 PUSH2 0x20CD JUMP JUMPDEST PUSH2 0x10AF SWAP2 SWAP1 PUSH2 0x1F92 JUMP JUMPDEST PUSH1 0x4 DUP4 PUSH1 0x40 MLOAD PUSH2 0x10BF SWAP2 SWAP1 PUSH2 0x1A5B JUMP JUMPDEST SWAP1 DUP2 MSTORE PUSH1 0x20 ADD PUSH1 0x40 MLOAD DUP1 SWAP2 SUB SWAP1 KECCAK256 PUSH1 0x1 ADD SLOAD LT ISZERO PUSH2 0x1112 JUMPI PUSH1 0x40 MLOAD PUSH32 0x8C379A000000000000000000000000000000000000000000000000000000000 DUP2 MSTORE PUSH1 0x4 ADD PUSH2 0x1109 SWAP1 PUSH2 0x23B7 JUMP JUMPDEST PUSH1 0x40 MLOAD DUP1 SWAP2 SUB SWAP1 REVERT JUMPDEST PUSH1 0x4 DUP3 PUSH1 0x40 MLOAD PUSH2 0x1122 SWAP2 SWAP1 PUSH2 0x1A5B JUMP JUMPDEST SWAP1 DUP2 MSTORE PUSH1 0x20 ADD PUSH1 0x40 MLOAD DUP1 SWAP2 SUB SWAP1 KECCAK256 PUSH1 0x2 ADD SLOAD CALLVALUE EQ PUSH2 0x1175 JUMPI PUSH1 0x40 MLOAD PUSH32 0x8C379A000000000000000000000000000000000000000000000000000000000 DUP2 MSTORE PUSH1 0x4 ADD PUSH2 0x116C SWAP1 PUSH2 0x2423 JUMP JUMPDEST PUSH1 0x40 MLOAD DUP1 SWAP2 SUB SWAP1 REVERT JUMPDEST PUSH1 0x0 PUSH1 0x4 DUP4 PUSH1 0x40 MLOAD PUSH2 0x1187 SWAP2 SWAP1 PUSH2 0x1A5B JUMP JUMPDEST SWAP1 DUP2 MSTORE PUSH1 0x20 ADD PUSH1 0x40 MLOAD DUP1 SWAP2 SUB SWAP1 KECCAK256 SWAP1 POP PUSH1 0x1 DUP2 PUSH1 0x3 ADD PUSH1 0x0 CALLER PUSH20 0xFFFFFFFFFFFFFFFFFFFFFFFFFFFFFFFFFFFFFFFF AND PUSH20 0xFFFFFFFFFFFFFFFFFFFFFFFFFFFFFFFFFFFFFFFF AND DUP2 MSTORE PUSH1 0x20 ADD SWAP1 DUP2 MSTORE PUSH1 0x20 ADD PUSH1 0x0 KECCAK256 PUSH1 0x0 PUSH2 0x100 EXP DUP2 SLOAD DUP2 PUSH1 0xFF MUL NOT AND SWAP1 DUP4 ISZERO ISZERO MUL OR SWAP1 SSTORE POP CALLVALUE DUP2 PUSH1 0x4 ADD PUSH1 0x0 CALLER PUSH20 0xFFFFFFFFFFFFFFFFFFFFFFFFFFFFFFFFFFFFFFFF AND PUSH20 0xFFFFFFFFFFFFFFFFFFFFFFFFFFFFFFFFFFFFFFFF AND DUP2 MSTORE PUSH1 0x20 ADD SWAP1 DUP2 MSTORE PUSH1 0x20 ADD PUSH1 0x0 KECCAK256 PUSH1 0x0 DUP3 DUP3 SLOAD PUSH2 0x1242 SWAP2 SWAP1 PUSH2 0x1F92 JUMP JUMPDEST SWAP3 POP POP DUP2 SWAP1 SSTORE POP DUP1 PUSH1 0x6 ADD CALLER SWAP1 DUP1 PUSH1 0x1 DUP2 SLOAD ADD DUP1 DUP3 SSTORE DUP1 SWAP2 POP POP PUSH1 0x1 SWAP1 SUB SWAP1 PUSH1 0x0 MSTORE PUSH1 0x20 PUSH1 0x0 KECCAK256 ADD PUSH1 0x0 SWAP1 SWAP2 SWAP1 SWAP2 SWAP1 SWAP2 PUSH2 0x100 EXP DUP2 SLOAD DUP2 PUSH20 0xFFFFFFFFFFFFFFFFFFFFFFFFFFFFFFFFFFFFFFFF MUL NOT AND SWAP1 DUP4 PUSH20 0xFFFFFFFFFFFFFFFFFFFFFFFFFFFFFFFFFFFFFFFF AND MUL OR SWAP1 SSTORE POP POP POP POP JUMP JUMPDEST PUSH1 0x3 PUSH1 0x20 MSTORE DUP1 PUSH1 0x0 MSTORE PUSH1 0x40 PUSH1 0x0 KECCAK256 PUSH1 0x0 SWAP2 POP SWAP1 POP SLOAD DUP2 JUMP JUMPDEST PUSH1 0x0 PUSH1 0x40 MLOAD SWAP1 POP SWAP1 JUMP JUMPDEST PUSH1 0x0 DUP1 REVERT JUMPDEST PUSH1 0x0 DUP1 REVERT JUMPDEST PUSH1 0x0 DUP1 REVERT JUMPDEST PUSH1 0x0 DUP1 REVERT JUMPDEST PUSH1 0x0 PUSH1 0x1F NOT PUSH1 0x1F DUP4 ADD AND SWAP1 POP SWAP2 SWAP1 POP JUMP JUMPDEST PUSH32 0x4E487B7100000000000000000000000000000000000000000000000000000000 PUSH1 0x0 MSTORE PUSH1 0x41 PUSH1 0x4 MSTORE PUSH1 0x24 PUSH1 0x0 REVERT JUMPDEST PUSH2 0x1332 DUP3 PUSH2 0x12E9 JUMP JUMPDEST DUP2 ADD DUP2 DUP2 LT PUSH8 0xFFFFFFFFFFFFFFFF DUP3 GT OR ISZERO PUSH2 0x1351 JUMPI PUSH2 0x1350 PUSH2 0x12FA JUMP JUMPDEST JUMPDEST DUP1 PUSH1 0x40 MSTORE POP POP POP JUMP JUMPDEST PUSH1 0x0 PUSH2 0x1364 PUSH2 0x12CB JUMP JUMPDEST SWAP1 POP PUSH2 0x1370 DUP3 DUP3 PUSH2 0x1329 JUMP JUMPDEST SWAP2 SWAP1 POP JUMP JUMPDEST PUSH1 0x0 PUSH8 0xFFFFFFFFFFFFFFFF DUP3 GT ISZERO PUSH2 0x1390 JUMPI PUSH2 0x138F PUSH2 0x12FA JUMP JUMPDEST JUMPDEST PUSH2 0x1399 DUP3 PUSH2 0x12E9 JUMP JUMPDEST SWAP1 POP PUSH1 0x20 DUP2 ADD SWAP1 POP SWAP2 SWAP1 POP JUMP JUMPDEST DUP3 DUP2 DUP4 CALLDATACOPY PUSH1 0x0 DUP4 DUP4 ADD MSTORE POP POP POP JUMP JUMPDEST PUSH1 0x0 PUSH2 0x13C8 PUSH2 0x13C3 DUP5 PUSH2 0x1375 JUMP JUMPDEST PUSH2 0x135A JUMP JUMPDEST SWAP1 POP DUP3 DUP2 MSTORE PUSH1 0x20 DUP2 ADD DUP5 DUP5 DUP5 ADD GT ISZERO PUSH2 0x13E4 JUMPI PUSH2 0x13E3 PUSH2 0x12E4 JUMP JUMPDEST JUMPDEST PUSH2 0x13EF DUP5 DUP3 DUP6 PUSH2 0x13A6 JUMP JUMPDEST POP SWAP4 SWAP3 POP POP POP JUMP JUMPDEST PUSH1 0x0 DUP3 PUSH1 0x1F DUP4 ADD SLT PUSH2 0x140C JUMPI PUSH2 0x140B PUSH2 0x12DF JUMP JUMPDEST JUMPDEST DUP2 CALLDATALOAD PUSH2 0x141C DUP5 DUP3 PUSH1 0x20 DUP7 ADD PUSH2 0x13B5 JUMP JUMPDEST SWAP2 POP POP SWAP3 SWAP2 POP POP JUMP JUMPDEST PUSH1 0x0 PUSH1 0x20 DUP3 DUP5 SUB SLT ISZERO PUSH2 0x143B JUMPI PUSH2 0x143A PUSH2 0x12D5 JUMP JUMPDEST JUMPDEST PUSH1 0x0 DUP3 ADD CALLDATALOAD PUSH8 0xFFFFFFFFFFFFFFFF DUP2 GT ISZERO PUSH2 0x1459 JUMPI PUSH2 0x1458 PUSH2 0x12DA JUMP JUMPDEST JUMPDEST PUSH2 0x1465 DUP5 DUP3 DUP6 ADD PUSH2 0x13F7 JUMP JUMPDEST SWAP2 POP POP SWAP3 SWAP2 POP POP JUMP JUMPDEST PUSH1 0x0 DUP2 MLOAD SWAP1 POP SWAP2 SWAP1 POP JUMP JUMPDEST PUSH1 0x0 DUP3 DUP3 MSTORE PUSH1 0x20 DUP3 ADD SWAP1 POP SWAP3 SWAP2 POP POP JUMP JUMPDEST PUSH1 0x0 JUMPDEST DUP4 DUP2 LT ISZERO PUSH2 0x14A8 JUMPI DUP1 DUP3 ADD MLOAD DUP2 DUP5 ADD MSTORE PUSH1 0x20 DUP2 ADD SWAP1 POP PUSH2 0x148D JUMP JUMPDEST PUSH1 0x0 DUP5 DUP5 ADD MSTORE POP POP POP POP JUMP JUMPDEST PUSH1 0x0 PUSH2 0x14BF DUP3 PUSH2 0x146E JUMP JUMPDEST PUSH2 0x14C9 DUP2 DUP6 PUSH2 0x1479 JUMP JUMPDEST SWAP4 POP PUSH2 0x14D9 DUP2 DUP6 PUSH1 0x20 DUP7 ADD PUSH2 0x148A JUMP JUMPDEST PUSH2 0x14E2 DUP2 PUSH2 0x12E9 JUMP JUMPDEST DUP5 ADD SWAP2 POP POP SWAP3 SWAP2 POP POP JUMP JUMPDEST PUSH1 0x0 DUP2 SWAP1 POP SWAP2 SWAP1 POP JUMP JUMPDEST PUSH2 0x1500 DUP2 PUSH2 0x14ED JUMP JUMPDEST DUP3 MSTORE POP POP JUMP JUMPDEST PUSH1 0x0 PUSH1 0xA0 DUP3 ADD SWAP1 POP DUP2 DUP2 SUB PUSH1 0x0 DUP4 ADD MSTORE PUSH2 0x1520 DUP2 DUP9 PUSH2 0x14B4 JUMP JUMPDEST SWAP1 POP PUSH2 0x152F PUSH1 0x20 DUP4 ADD DUP8 PUSH2 0x14F7 JUMP JUMPDEST PUSH2 0x153C PUSH1 0x40 DUP4 ADD DUP7 PUSH2 0x14F7 JUMP JUMPDEST PUSH2 0x1549 PUSH1 0x60 DUP4 ADD DUP6 PUSH2 0x14F7 JUMP JUMPDEST PUSH2 0x1556 PUSH1 0x80 DUP4 ADD DUP5 PUSH2 0x14F7 JUMP JUMPDEST SWAP7 SWAP6 POP POP POP POP POP POP JUMP JUMPDEST PUSH2 0x1569 DUP2 PUSH2 0x14ED JUMP JUMPDEST DUP2 EQ PUSH2 0x1574 JUMPI PUSH1 0x0 DUP1 REVERT JUMPDEST POP JUMP JUMPDEST PUSH1 0x0 DUP2 CALLDATALOAD SWAP1 POP PUSH2 0x1586 DUP2 PUSH2 0x1560 JUMP JUMPDEST SWAP3 SWAP2 POP POP JUMP JUMPDEST PUSH1 0x0 DUP1 PUSH1 0x0 DUP1 PUSH1 0x0 PUSH1 0xA0 DUP7 DUP9 SUB SLT ISZERO PUSH2 0x15A8 JUMPI PUSH2 0x15A7 PUSH2 0x12D5 JUMP JUMPDEST JUMPDEST PUSH1 0x0 DUP7 ADD CALLDATALOAD PUSH8 0xFFFFFFFFFFFFFFFF DUP2 GT ISZERO PUSH2 0x15C6 JUMPI PUSH2 0x15C5 PUSH2 0x12DA JUMP JUMPDEST JUMPDEST PUSH2 0x15D2 DUP9 DUP3 DUP10 ADD PUSH2 0x13F7 JUMP JUMPDEST SWAP6 POP POP PUSH1 0x20 PUSH2 0x15E3 DUP9 DUP3 DUP10 ADD PUSH2 0x1577 JUMP JUMPDEST SWAP5 POP POP PUSH1 0x40 PUSH2 0x15F4 DUP9 DUP3 DUP10 ADD PUSH2 0x1577 JUMP JUMPDEST SWAP4 POP POP PUSH1 0x60 PUSH2 0x1605 DUP9 DUP3 DUP10 ADD PUSH2 0x1577 JUMP JUMPDEST SWAP3 POP POP PUSH1 0x80 PUSH2 0x1616 DUP9 DUP3 DUP10 ADD PUSH2 0x1577 JUMP JUMPDEST SWAP2 POP POP SWAP3 SWAP6 POP SWAP3 SWAP6 SWAP1 SWAP4 POP JUMP JUMPDEST PUSH1 0x0 DUP2 ISZERO ISZERO SWAP1 POP SWAP2 SWAP1 POP JUMP JUMPDEST PUSH2 0x1638 DUP2 PUSH2 0x1623 JUMP JUMPDEST DUP3 MSTORE POP POP JUMP JUMPDEST PUSH1 0x0 PUSH1 0x80 DUP3 ADD SWAP1 POP DUP2 DUP2 SUB PUSH1 0x0 DUP4 ADD MSTORE PUSH2 0x1658 DUP2 DUP8 PUSH2 0x14B4 JUMP JUMPDEST SWAP1 POP PUSH2 0x1667 PUSH1 0x20 DUP4 ADD DUP7 PUSH2 0x14F7 JUMP JUMPDEST PUSH2 0x1674 PUSH1 0x40 DUP4 ADD DUP6 PUSH2 0x14F7 JUMP JUMPDEST PUSH2 0x1681 PUSH1 0x60 DUP4 ADD DUP5 PUSH2 0x162F JUMP JUMPDEST SWAP6 SWAP5 POP POP POP POP POP JUMP JUMPDEST PUSH1 0x0 DUP2 MLOAD SWAP1 POP SWAP2 SWAP1 POP JUMP JUMPDEST PUSH1 0x0 DUP3 DUP3 MSTORE PUSH1 0x20 DUP3 ADD SWAP1 POP SWAP3 SWAP2 POP POP JUMP JUMPDEST PUSH1 0x0 DUP2 SWAP1 POP PUSH1 0x20 DUP3 ADD SWAP1 POP SWAP2 SWAP1 POP JUMP JUMPDEST PUSH1 0x0 PUSH20 0xFFFFFFFFFFFFFFFFFFFFFFFFFFFFFFFFFFFFFFFF DUP3 AND SWAP1 POP SWAP2 SWAP1 POP JUMP JUMPDEST PUSH1 0x0 PUSH2 0x16E1 DUP3 PUSH2 0x16B6 JUMP JUMPDEST SWAP1 POP SWAP2 SWAP1 POP JUMP JUMPDEST PUSH2 0x16F1 DUP2 PUSH2 0x16D6 JUMP JUMPDEST DUP3 MSTORE POP POP JUMP JUMPDEST PUSH1 0x0 PUSH2 0x1703 DUP4 DUP4 PUSH2 0x16E8 JUMP JUMPDEST PUSH1 0x20 DUP4 ADD SWAP1 POP SWAP3 SWAP2 POP POP JUMP JUMPDEST PUSH1 0x0 PUSH1 0x20 DUP3 ADD SWAP1 POP SWAP2 SWAP1 POP JUMP JUMPDEST PUSH1 0x0 PUSH2 0x1727 DUP3 PUSH2 0x168A JUMP JUMPDEST PUSH2 0x1731 DUP2 DUP6 PUSH2 0x1695 JUMP JUMPDEST SWAP4 POP PUSH2 0x173C DUP4 PUSH2 0x16A6 JUMP JUMPDEST DUP1 PUSH1 0x0 JUMPDEST DUP4 DUP2 LT ISZERO PUSH2 0x176D JUMPI DUP2 MLOAD PUSH2 0x1754 DUP9 DUP3 PUSH2 0x16F7 JUMP JUMPDEST SWAP8 POP PUSH2 0x175F DUP4 PUSH2 0x170F JUMP JUMPDEST SWAP3 POP POP PUSH1 0x1 DUP2 ADD SWAP1 POP PUSH2 0x1740 JUMP JUMPDEST POP DUP6 SWAP4 POP POP POP POP SWAP3 SWAP2 POP POP JUMP JUMPDEST PUSH1 0x0 PUSH1 0x20 DUP3 ADD SWAP1 POP DUP2 DUP2 SUB PUSH1 0x0 DUP4 ADD MSTORE PUSH2 0x1794 DUP2 DUP5 PUSH2 0x171C JUMP JUMPDEST SWAP1 POP SWAP3 SWAP2 POP POP JUMP JUMPDEST PUSH1 0x0 PUSH8 0xFFFFFFFFFFFFFFFF DUP3 GT ISZERO PUSH2 0x17B7 JUMPI PUSH2 0x17B6 PUSH2 0x12FA JUMP JUMPDEST JUMPDEST PUSH1 0x20 DUP3 MUL SWAP1 POP PUSH1 0x20 DUP2 ADD SWAP1 POP SWAP2 SWAP1 POP JUMP JUMPDEST PUSH1 0x0 DUP1 REVERT JUMPDEST PUSH1 0x0 PUSH2 0x17E0 PUSH2 0x17DB DUP5 PUSH2 0x179C JUMP JUMPDEST PUSH2 0x135A JUMP JUMPDEST SWAP1 POP DUP1 DUP4 DUP3 MSTORE PUSH1 0x20 DUP3 ADD SWAP1 POP PUSH1 0x20 DUP5 MUL DUP4 ADD DUP6 DUP2 GT ISZERO PUSH2 0x1803 JUMPI PUSH2 0x1802 PUSH2 0x17C8 JUMP JUMPDEST JUMPDEST DUP4 JUMPDEST DUP2 DUP2 LT ISZERO PUSH2 0x184A JUMPI DUP1 CALLDATALOAD PUSH8 0xFFFFFFFFFFFFFFFF DUP2 GT ISZERO PUSH2 0x1828 JUMPI PUSH2 0x1827 PUSH2 0x12DF JUMP JUMPDEST JUMPDEST DUP1 DUP7 ADD PUSH2 0x1835 DUP10 DUP3 PUSH2 0x13F7 JUMP JUMPDEST DUP6 MSTORE PUSH1 0x20 DUP6 ADD SWAP5 POP POP POP PUSH1 0x20 DUP2 ADD SWAP1 POP PUSH2 0x1805 JUMP JUMPDEST POP POP POP SWAP4 SWAP3 POP POP POP JUMP JUMPDEST PUSH1 0x0 DUP3 PUSH1 0x1F DUP4 ADD SLT PUSH2 0x1869 JUMPI PUSH2 0x1868 PUSH2 0x12DF JUMP JUMPDEST JUMPDEST DUP2 CALLDATALOAD PUSH2 0x1879 DUP5 DUP3 PUSH1 0x20 DUP7 ADD PUSH2 0x17CD JUMP JUMPDEST SWAP2 POP POP SWAP3 SWAP2 POP POP JUMP JUMPDEST PUSH1 0x0 DUP1 PUSH1 0x0 DUP1 PUSH1 0x80 DUP6 DUP8 SUB SLT ISZERO PUSH2 0x189C JUMPI PUSH2 0x189B PUSH2 0x12D5 JUMP JUMPDEST JUMPDEST PUSH1 0x0 DUP6 ADD CALLDATALOAD PUSH8 0xFFFFFFFFFFFFFFFF DUP2 GT ISZERO PUSH2 0x18BA JUMPI PUSH2 0x18B9 PUSH2 0x12DA JUMP JUMPDEST JUMPDEST PUSH2 0x18C6 DUP8 DUP3 DUP9 ADD PUSH2 0x13F7 JUMP JUMPDEST SWAP5 POP POP PUSH1 0x20 PUSH2 0x18D7 DUP8 DUP3 DUP9 ADD PUSH2 0x1577 JUMP JUMPDEST SWAP4 POP POP PUSH1 0x40 PUSH2 0x18E8 DUP8 DUP3 DUP9 ADD PUSH2 0x1577 JUMP JUMPDEST SWAP3 POP POP PUSH1 0x60 DUP6 ADD CALLDATALOAD PUSH8 0xFFFFFFFFFFFFFFFF DUP2 GT ISZERO PUSH2 0x1909 JUMPI PUSH2 0x1908 PUSH2 0x12DA JUMP JUMPDEST JUMPDEST PUSH2 0x1915 DUP8 DUP3 DUP9 ADD PUSH2 0x1854 JUMP JUMPDEST SWAP2 POP POP SWAP3 SWAP6 SWAP2 SWAP5 POP SWAP3 POP JUMP JUMPDEST PUSH2 0x192A DUP2 PUSH2 0x16D6 JUMP JUMPDEST DUP3 MSTORE POP POP JUMP JUMPDEST PUSH1 0x0 PUSH1 0x20 DUP3 ADD SWAP1 POP PUSH2 0x1945 PUSH1 0x0 DUP4 ADD DUP5 PUSH2 0x1921 JUMP JUMPDEST SWAP3 SWAP2 POP POP JUMP JUMPDEST PUSH2 0x1954 DUP2 PUSH2 0x16D6 JUMP JUMPDEST DUP2 EQ PUSH2 0x195F JUMPI PUSH1 0x0 DUP1 REVERT JUMPDEST POP JUMP JUMPDEST PUSH1 0x0 DUP2 CALLDATALOAD SWAP1 POP PUSH2 0x1971 DUP2 PUSH2 0x194B JUMP JUMPDEST SWAP3 SWAP2 POP POP JUMP JUMPDEST PUSH1 0x0 PUSH1 0x20 DUP3 DUP5 SUB SLT ISZERO PUSH2 0x198D JUMPI PUSH2 0x198C PUSH2 0x12D5 JUMP JUMPDEST JUMPDEST PUSH1 0x0 PUSH2 0x199B DUP5 DUP3 DUP6 ADD PUSH2 0x1962 JUMP JUMPDEST SWAP2 POP POP SWAP3 SWAP2 POP POP JUMP JUMPDEST PUSH1 0x0 PUSH1 0x20 DUP3 ADD SWAP1 POP PUSH2 0x19B9 PUSH1 0x0 DUP4 ADD DUP5 PUSH2 0x14F7 JUMP JUMPDEST SWAP3 SWAP2 POP POP JUMP JUMPDEST PUSH32 0x4E487B7100000000000000000000000000000000000000000000000000000000 PUSH1 0x0 MSTORE PUSH1 0x22 PUSH1 0x4 MSTORE PUSH1 0x24 PUSH1 0x0 REVERT JUMPDEST PUSH1 0x0 PUSH1 0x2 DUP3 DIV SWAP1 POP PUSH1 0x1 DUP3 AND DUP1 PUSH2 0x1A06 JUMPI PUSH1 0x7F DUP3 AND SWAP2 POP JUMPDEST PUSH1 0x20 DUP3 LT DUP2 SUB PUSH2 0x1A19 JUMPI PUSH2 0x1A18 PUSH2 0x19BF JUMP JUMPDEST JUMPDEST POP SWAP2 SWAP1 POP JUMP JUMPDEST PUSH1 0x0 DUP2 SWAP1 POP SWAP3 SWAP2 POP POP JUMP JUMPDEST PUSH1 0x0 PUSH2 0x1A35 DUP3 PUSH2 0x146E JUMP JUMPDEST PUSH2 0x1A3F DUP2 DUP6 PUSH2 0x1A1F JUMP JUMPDEST SWAP4 POP PUSH2 0x1A4F DUP2 DUP6 PUSH1 0x20 DUP7 ADD PUSH2 0x148A JUMP JUMPDEST DUP1 DUP5 ADD SWAP2 POP POP SWAP3 SWAP2 POP POP JUMP JUMPDEST PUSH1 0x0 PUSH2 0x1A67 DUP3 DUP5 PUSH2 0x1A2A JUMP JUMPDEST SWAP2 POP DUP2 SWAP1 POP SWAP3 SWAP2 POP POP JUMP JUMPDEST PUSH1 0x0 DUP2 SWAP1 POP DUP2 PUSH1 0x0 MSTORE PUSH1 0x20 PUSH1 0x0 KECCAK256 SWAP1 POP SWAP2 SWAP1 POP JUMP JUMPDEST PUSH1 0x0 PUSH1 0x20 PUSH1 0x1F DUP4 ADD DIV SWAP1 POP SWAP2 SWAP1 POP JUMP JUMPDEST PUSH1 0x0 DUP3 DUP3 SHL SWAP1 POP SWAP3 SWAP2 POP POP JUMP JUMPDEST PUSH1 0x0 PUSH1 0x8 DUP4 MUL PUSH2 0x1AD4 PUSH32 0xFFFFFFFFFFFFFFFFFFFFFFFFFFFFFFFFFFFFFFFFFFFFFFFFFFFFFFFFFFFFFFFF DUP3 PUSH2 0x1A97 JUMP JUMPDEST PUSH2 0x1ADE DUP7 DUP4 PUSH2 0x1A97 JUMP JUMPDEST SWAP6 POP DUP1 NOT DUP5 AND SWAP4 POP DUP1 DUP7 AND DUP5 OR SWAP3 POP POP POP SWAP4 SWAP3 POP POP POP JUMP JUMPDEST PUSH1 0x0 DUP2 SWAP1 POP SWAP2 SWAP1 POP JUMP JUMPDEST PUSH1 0x0 PUSH2 0x1B1B PUSH2 0x1B16 PUSH2 0x1B11 DUP5 PUSH2 0x14ED JUMP JUMPDEST PUSH2 0x1AF6 JUMP JUMPDEST PUSH2 0x14ED JUMP JUMPDEST SWAP1 POP SWAP2 SWAP1 POP JUMP JUMPDEST PUSH1 0x0 DUP2 SWAP1 POP SWAP2 SWAP1 POP JUMP JUMPDEST PUSH2 0x1B35 DUP4 PUSH2 0x1B00 JUMP JUMPDEST PUSH2 0x1B49 PUSH2 0x1B41 DUP3 PUSH2 0x1B22 JUMP JUMPDEST DUP5 DUP5 SLOAD PUSH2 0x1AA4 JUMP JUMPDEST DUP3 SSTORE POP POP POP POP JUMP JUMPDEST PUSH1 0x0 SWAP1 JUMP JUMPDEST PUSH2 0x1B5E PUSH2 0x1B51 JUMP JUMPDEST PUSH2 0x1B69 DUP2 DUP5 DUP5 PUSH2 0x1B2C JUMP JUMPDEST POP POP POP JUMP JUMPDEST JUMPDEST DUP2 DUP2 LT ISZERO PUSH2 0x1B8D JUMPI PUSH2 0x1B82 PUSH1 0x0 DUP3 PUSH2 0x1B56 JUMP JUMPDEST PUSH1 0x1 DUP2 ADD SWAP1 POP PUSH2 0x1B6F JUMP JUMPDEST POP POP JUMP JUMPDEST PUSH1 0x1F DUP3 GT ISZERO PUSH2 0x1BD2 JUMPI PUSH2 0x1BA3 DUP2 PUSH2 0x1A72 JUMP JUMPDEST PUSH2 0x1BAC DUP5 PUSH2 0x1A87 JUMP JUMPDEST DUP2 ADD PUSH1 0x20 DUP6 LT ISZERO PUSH2 0x1BBB JUMPI DUP2 SWAP1 POP JUMPDEST PUSH2 0x1BCF PUSH2 0x1BC7 DUP6 PUSH2 0x1A87 JUMP JUMPDEST DUP4 ADD DUP3 PUSH2 0x1B6E JUMP JUMPDEST POP POP JUMPDEST POP POP POP JUMP JUMPDEST PUSH1 0x0 DUP3 DUP3 SHR SWAP1 POP SWAP3 SWAP2 POP POP JUMP JUMPDEST PUSH1 0x0 PUSH2 0x1BF5 PUSH1 0x0 NOT DUP5 PUSH1 0x8 MUL PUSH2 0x1BD7 JUMP JUMPDEST NOT DUP1 DUP4 AND SWAP2 POP POP SWAP3 SWAP2 POP POP JUMP JUMPDEST PUSH1 0x0 PUSH2 0x1C0E DUP4 DUP4 PUSH2 0x1BE4 JUMP JUMPDEST SWAP2 POP DUP3 PUSH1 0x2 MUL DUP3 OR SWAP1 POP SWAP3 SWAP2 POP POP JUMP JUMPDEST PUSH2 0x1C27 DUP3 PUSH2 0x146E JUMP JUMPDEST PUSH8 0xFFFFFFFFFFFFFFFF DUP2 GT ISZERO PUSH2 0x1C40 JUMPI PUSH2 0x1C3F PUSH2 0x12FA JUMP JUMPDEST JUMPDEST PUSH2 0x1C4A DUP3 SLOAD PUSH2 0x19EE JUMP JUMPDEST PUSH2 0x1C55 DUP3 DUP3 DUP6 PUSH2 0x1B91 JUMP JUMPDEST PUSH1 0x0 PUSH1 0x20 SWAP1 POP PUSH1 0x1F DUP4 GT PUSH1 0x1 DUP2 EQ PUSH2 0x1C88 JUMPI PUSH1 0x0 DUP5 ISZERO PUSH2 0x1C76 JUMPI DUP3 DUP8 ADD MLOAD SWAP1 POP JUMPDEST PUSH2 0x1C80 DUP6 DUP3 PUSH2 0x1C02 JUMP JUMPDEST DUP7 SSTORE POP PUSH2 0x1CE8 JUMP JUMPDEST PUSH1 0x1F NOT DUP5 AND PUSH2 0x1C96 DUP7 PUSH2 0x1A72 JUMP JUMPDEST PUSH1 0x0 JUMPDEST DUP3 DUP2 LT ISZERO PUSH2 0x1CBE JUMPI DUP5 DUP10 ADD MLOAD DUP3 SSTORE PUSH1 0x1 DUP3 ADD SWAP2 POP PUSH1 0x20 DUP6 ADD SWAP5 POP PUSH1 0x20 DUP2 ADD SWAP1 POP PUSH2 0x1C99 JUMP JUMPDEST DUP7 DUP4 LT ISZERO PUSH2 0x1CDB JUMPI DUP5 DUP10 ADD MLOAD PUSH2 0x1CD7 PUSH1 0x1F DUP10 AND DUP3 PUSH2 0x1BE4 JUMP JUMPDEST DUP4 SSTORE POP JUMPDEST PUSH1 0x1 PUSH1 0x2 DUP9 MUL ADD DUP9 SSTORE POP POP POP JUMPDEST POP POP POP POP POP POP JUMP JUMPDEST PUSH32 0x4F6E6C79206F776E65722063616E2063616C6C20746869732066756E6374696F PUSH1 0x0 DUP3 ADD MSTORE PUSH32 0x6E00000000000000000000000000000000000000000000000000000000000000 PUSH1 0x20 DUP3 ADD MSTORE POP JUMP JUMPDEST PUSH1 0x0 PUSH2 0x1D4C PUSH1 0x21 DUP4 PUSH2 0x1479 JUMP JUMPDEST SWAP2 POP PUSH2 0x1D57 DUP3 PUSH2 0x1CF0 JUMP JUMPDEST PUSH1 0x40 DUP3 ADD SWAP1 POP SWAP2 SWAP1 POP JUMP JUMPDEST PUSH1 0x0 PUSH1 0x20 DUP3 ADD SWAP1 POP DUP2 DUP2 SUB PUSH1 0x0 DUP4 ADD MSTORE PUSH2 0x1D7B DUP2 PUSH2 0x1D3F JUMP JUMPDEST SWAP1 POP SWAP2 SWAP1 POP JUMP JUMPDEST PUSH1 0x0 DUP2 SWAP1 POP SWAP3 SWAP2 POP POP JUMP JUMPDEST PUSH1 0x0 DUP2 SWAP1 POP DUP2 PUSH1 0x0 MSTORE PUSH1 0x20 PUSH1 0x0 KECCAK256 SWAP1 POP SWAP2 SWAP1 POP JUMP JUMPDEST PUSH1 0x0 DUP2 SLOAD PUSH2 0x1DAF DUP2 PUSH2 0x19EE JUMP JUMPDEST PUSH2 0x1DB9 DUP2 DUP7 PUSH2 0x1D82 JUMP JUMPDEST SWAP5 POP PUSH1 0x1 DUP3 AND PUSH1 0x0 DUP2 EQ PUSH2 0x1DD4 JUMPI PUSH1 0x1 DUP2 EQ PUSH2 0x1DE9 JUMPI PUSH2 0x1E1C JUMP JUMPDEST PUSH1 0xFF NOT DUP4 AND DUP7 MSTORE DUP2 ISZERO ISZERO DUP3 MUL DUP7 ADD SWAP4 POP PUSH2 0x1E1C JUMP JUMPDEST PUSH2 0x1DF2 DUP6 PUSH2 0x1D8D JUMP JUMPDEST PUSH1 0x0 JUMPDEST DUP4 DUP2 LT ISZERO PUSH2 0x1E14 JUMPI DUP2 SLOAD DUP2 DUP10 ADD MSTORE PUSH1 0x1 DUP3 ADD SWAP2 POP PUSH1 0x20 DUP2 ADD SWAP1 POP PUSH2 0x1DF5 JUMP JUMPDEST DUP4 DUP9 ADD SWAP6 POP POP POP JUMPDEST POP POP POP SWAP3 SWAP2 POP POP JUMP JUMPDEST PUSH1 0x0 PUSH2 0x1E31 DUP3 DUP5 PUSH2 0x1DA2 JUMP JUMPDEST SWAP2 POP DUP2 SWAP1 POP SWAP3 SWAP2 POP POP JUMP JUMPDEST PUSH32 0x4861626974206E6F7420666F756E640000000000000000000000000000000000 PUSH1 0x0 DUP3 ADD MSTORE POP JUMP JUMPDEST PUSH1 0x0 PUSH2 0x1E72 PUSH1 0xF DUP4 PUSH2 0x1479 JUMP JUMPDEST SWAP2 POP PUSH2 0x1E7D DUP3 PUSH2 0x1E3C JUMP JUMPDEST PUSH1 0x20 DUP3 ADD SWAP1 POP SWAP2 SWAP1 POP JUMP JUMPDEST PUSH1 0x0 PUSH1 0x20 DUP3 ADD SWAP1 POP DUP2 DUP2 SUB PUSH1 0x0 DUP4 ADD MSTORE PUSH2 0x1EA1 DUP2 PUSH2 0x1E65 JUMP JUMPDEST SWAP1 POP SWAP2 SWAP1 POP JUMP JUMPDEST PUSH32 0x4E487B7100000000000000000000000000000000000000000000000000000000 PUSH1 0x0 MSTORE PUSH1 0x11 PUSH1 0x4 MSTORE PUSH1 0x24 PUSH1 0x0 REVERT JUMPDEST PUSH1 0x0 PUSH2 0x1EE2 DUP3 PUSH2 0x14ED JUMP JUMPDEST SWAP2 POP PUSH1 0x0 DUP3 SUB PUSH2 0x1EF5 JUMPI PUSH2 0x1EF4 PUSH2 0x1EA8 JUMP JUMPDEST JUMPDEST PUSH1 0x1 DUP3 SUB SWAP1 POP SWAP2 SWAP1 POP JUMP JUMPDEST PUSH32 0x43726561746F72206D757374207374616B652070657220706572736F6E207374 PUSH1 0x0 DUP3 ADD MSTORE PUSH32 0x616B650000000000000000000000000000000000000000000000000000000000 PUSH1 0x20 DUP3 ADD MSTORE POP JUMP JUMPDEST PUSH1 0x0 PUSH2 0x1F5C PUSH1 0x23 DUP4 PUSH2 0x1479 JUMP JUMPDEST SWAP2 POP PUSH2 0x1F67 DUP3 PUSH2 0x1F00 JUMP JUMPDEST PUSH1 0x40 DUP3 ADD SWAP1 POP SWAP2 SWAP1 POP JUMP JUMPDEST PUSH1 0x0 PUSH1 0x20 DUP3 ADD SWAP1 POP DUP2 DUP2 SUB PUSH1 0x0 DUP4 ADD MSTORE PUSH2 0x1F8B DUP2 PUSH2 0x1F4F JUMP JUMPDEST SWAP1 POP SWAP2 SWAP1 POP JUMP JUMPDEST PUSH1 0x0 PUSH2 0x1F9D DUP3 PUSH2 0x14ED JUMP JUMPDEST SWAP2 POP PUSH2 0x1FA8 DUP4 PUSH2 0x14ED JUMP JUMPDEST SWAP3 POP DUP3 DUP3 ADD SWAP1 POP DUP1 DUP3 GT ISZERO PUSH2 0x1FC0 JUMPI PUSH2 0x1FBF PUSH2 0x1EA8 JUMP JUMPDEST JUMPDEST SWAP3 SWAP2 POP POP JUMP JUMPDEST PUSH32 0x4E487B7100000000000000000000000000000000000000000000000000000000 PUSH1 0x0 MSTORE PUSH1 0x32 PUSH1 0x4 MSTORE PUSH1 0x24 PUSH1 0x0 REVERT JUMPDEST PUSH32 0x4368616C6C656E6765206E6F7420636F6D706C65746564000000000000000000 PUSH1 0x0 DUP3 ADD MSTORE POP JUMP JUMPDEST PUSH1 0x0 PUSH2 0x202B PUSH1 0x17 DUP4 PUSH2 0x1479 JUMP JUMPDEST SWAP2 POP PUSH2 0x2036 DUP3 PUSH2 0x1FF5 JUMP JUMPDEST PUSH1 0x20 DUP3 ADD SWAP1 POP SWAP2 SWAP1 POP JUMP JUMPDEST PUSH1 0x0 PUSH1 0x20 DUP3 ADD SWAP1 POP DUP2 DUP2 SUB PUSH1 0x0 DUP4 ADD MSTORE PUSH2 0x205A DUP2 PUSH2 0x201E JUMP JUMPDEST SWAP1 POP SWAP2 SWAP1 POP JUMP JUMPDEST PUSH32 0x4E6F742061207061727469636970616E74000000000000000000000000000000 PUSH1 0x0 DUP3 ADD MSTORE POP JUMP JUMPDEST PUSH1 0x0 PUSH2 0x2097 PUSH1 0x11 DUP4 PUSH2 0x1479 JUMP JUMPDEST SWAP2 POP PUSH2 0x20A2 DUP3 PUSH2 0x2061 JUMP JUMPDEST PUSH1 0x20 DUP3 ADD SWAP1 POP SWAP2 SWAP1 POP JUMP JUMPDEST PUSH1 0x0 PUSH1 0x20 DUP3 ADD SWAP1 POP DUP2 DUP2 SUB PUSH1 0x0 DUP4 ADD MSTORE PUSH2 0x20C6 DUP2 PUSH2 0x208A JUMP JUMPDEST SWAP1 POP SWAP2 SWAP1 POP JUMP JUMPDEST PUSH1 0x0 PUSH2 0x20D8 DUP3 PUSH2 0x14ED JUMP JUMPDEST SWAP2 POP PUSH2 0x20E3 DUP4 PUSH2 0x14ED JUMP JUMPDEST SWAP3 POP DUP3 DUP3 MUL PUSH2 0x20F1 DUP2 PUSH2 0x14ED JUMP JUMPDEST SWAP2 POP DUP3 DUP3 DIV DUP5 EQ DUP4 ISZERO OR PUSH2 0x2108 JUMPI PUSH2 0x2107 PUSH2 0x1EA8 JUMP JUMPDEST JUMPDEST POP SWAP3 SWAP2 POP POP JUMP JUMPDEST PUSH32 0x4E6F207061727469636970616E747320636F6D706C6574656420746865206368 PUSH1 0x0 DUP3 ADD MSTORE PUSH32 0x616C6C656E676500000000000000000000000000000000000000000000000000 PUSH1 0x20 DUP3 ADD MSTORE POP JUMP JUMPDEST PUSH1 0x0 PUSH2 0x216B PUSH1 0x27 DUP4 PUSH2 0x1479 JUMP JUMPDEST SWAP2 POP PUSH2 0x2176 DUP3 PUSH2 0x210F JUMP JUMPDEST PUSH1 0x40 DUP3 ADD SWAP1 POP SWAP2 SWAP1 POP JUMP JUMPDEST PUSH1 0x0 PUSH1 0x20 DUP3 ADD SWAP1 POP DUP2 DUP2 SUB PUSH1 0x0 DUP4 ADD MSTORE PUSH2 0x219A DUP2 PUSH2 0x215E JUMP JUMPDEST SWAP1 POP SWAP2 SWAP1 POP JUMP JUMPDEST PUSH32 0x4E487B7100000000000000000000000000000000000000000000000000000000 PUSH1 0x0 MSTORE PUSH1 0x12 PUSH1 0x4 MSTORE PUSH1 0x24 PUSH1 0x0 REVERT JUMPDEST PUSH1 0x0 PUSH2 0x21DB DUP3 PUSH2 0x14ED JUMP JUMPDEST SWAP2 POP PUSH2 0x21E6 DUP4 PUSH2 0x14ED JUMP JUMPDEST SWAP3 POP DUP3 PUSH2 0x21F6 JUMPI PUSH2 0x21F5 PUSH2 0x21A1 JUMP JUMPDEST JUMPDEST DUP3 DUP3 DIV SWAP1 POP SWAP3 SWAP2 POP POP JUMP JUMPDEST PUSH32 0x4368616C6C656E676520616C726561647920636F6D706C657465640000000000 PUSH1 0x0 DUP3 ADD MSTORE POP JUMP JUMPDEST PUSH1 0x0 PUSH2 0x2237 PUSH1 0x1B DUP4 PUSH2 0x1479 JUMP JUMPDEST SWAP2 POP PUSH2 0x2242 DUP3 PUSH2 0x2201 JUMP JUMPDEST PUSH1 0x20 DUP3 ADD SWAP1 POP SWAP2 SWAP1 POP JUMP JUMPDEST PUSH1 0x0 PUSH1 0x20 DUP3 ADD SWAP1 POP DUP2 DUP2 SUB PUSH1 0x0 DUP4 ADD MSTORE PUSH2 0x2266 DUP2 PUSH2 0x222A JUMP JUMPDEST SWAP1 POP SWAP2 SWAP1 POP JUMP JUMPDEST PUSH32 0x4861626974206E6F7420636F6D706C6574656400000000000000000000000000 PUSH1 0x0 DUP3 ADD MSTORE POP JUMP JUMPDEST PUSH1 0x0 PUSH2 0x22A3 PUSH1 0x13 DUP4 PUSH2 0x1479 JUMP JUMPDEST SWAP2 POP PUSH2 0x22AE DUP3 PUSH2 0x226D JUMP JUMPDEST PUSH1 0x20 DUP3 ADD SWAP1 POP SWAP2 SWAP1 POP JUMP JUMPDEST PUSH1 0x0 PUSH1 0x20 DUP3 ADD SWAP1 POP DUP2 DUP2 SUB PUSH1 0x0 DUP4 ADD MSTORE PUSH2 0x22D2 DUP2 PUSH2 0x2296 JUMP JUMPDEST SWAP1 POP SWAP2 SWAP1 POP JUMP JUMPDEST PUSH32 0x416C7265616479206A6F696E6564000000000000000000000000000000000000 PUSH1 0x0 DUP3 ADD MSTORE POP JUMP JUMPDEST PUSH1 0x0 PUSH2 0x230F PUSH1 0xE DUP4 PUSH2 0x1479 JUMP JUMPDEST SWAP2 POP PUSH2 0x231A DUP3 PUSH2 0x22D9 JUMP JUMPDEST PUSH1 0x20 DUP3 ADD SWAP1 POP SWAP2 SWAP1 POP JUMP JUMPDEST PUSH1 0x0 PUSH1 0x20 DUP3 ADD SWAP1 POP DUP2 DUP2 SUB PUSH1 0x0 DUP4 ADD MSTORE PUSH2 0x233E DUP2 PUSH2 0x2302 JUMP JUMPDEST SWAP1 POP SWAP2 SWAP1 POP JUMP JUMPDEST PUSH32 0x546F74616C20737461636B696E6720616D6F756E742065786365656473207468 PUSH1 0x0 DUP3 ADD MSTORE PUSH32 0x65206C696D697400000000000000000000000000000000000000000000000000 PUSH1 0x20 DUP3 ADD MSTORE POP JUMP JUMPDEST PUSH1 0x0 PUSH2 0x23A1 PUSH1 0x27 DUP4 PUSH2 0x1479 JUMP JUMPDEST SWAP2 POP PUSH2 0x23AC DUP3 PUSH2 0x2345 JUMP JUMPDEST PUSH1 0x40 DUP3 ADD SWAP1 POP SWAP2 SWAP1 POP JUMP JUMPDEST PUSH1 0x0 PUSH1 0x20 DUP3 ADD SWAP1 POP DUP2 DUP2 SUB PUSH1 0x0 DUP4 ADD MSTORE PUSH2 0x23D0 DUP2 PUSH2 0x2394 JUMP JUMPDEST SWAP1 POP SWAP2 SWAP1 POP JUMP JUMPDEST PUSH32 0x496E636F7272656374207374616B6520616D6F756E7400000000000000000000 PUSH1 0x0 DUP3 ADD MSTORE POP JUMP JUMPDEST PUSH1 0x0 PUSH2 0x240D PUSH1 0x16 DUP4 PUSH2 0x1479 JUMP JUMPDEST SWAP2 POP PUSH2 0x2418 DUP3 PUSH2 0x23D7 JUMP JUMPDEST PUSH1 0x20 DUP3 ADD SWAP1 POP SWAP2 SWAP1 POP JUMP JUMPDEST PUSH1 0x0 PUSH1 0x20 DUP3 ADD SWAP1 POP DUP2 DUP2 SUB PUSH1 0x0 DUP4 ADD MSTORE PUSH2 0x243C DUP2 PUSH2 0x2400 JUMP JUMPDEST SWAP1 POP SWAP2 SWAP1 POP JUMP INVALID LOG2 PUSH5 0x6970667358 0x22 SLT KECCAK256 0xD6 SHL TLOAD SWAP7 REVERT 0xEF DUP14 SWAP16 CHAINID SWAP12 0xF8 0xE SSTORE 0xDE 0xE5 CALLCODE 0xE4 PUSH22 0x5576F474616034ADFEBB7387E21264736F6C63430008 XOR STOP CALLER "},"methodIdentifiers":{"challenges(string)":"314adaf2","claimPointsForHabit(string)":"ae71d354","claimStakedAmount(string)":"7d0d8ba1","completeChallenge(string)":"98d0c518","completeHabit(string)":"5419ef67","createChallenge(string,uint256,uint256,string[])":"719c70c6","createHabit(string,uint256,uint256,uint256,uint256)":"2fff778c","generalHabits(string)":"a3edd71c","getChallengeParticipants(string)":"6eee9731","habits(string)":"0e4f98d6","joinChallenge(string)":"b162212b","owner()":"8da5cb5b","userPoints(address)":"f50ddbc7"}},"storageLayout":{"storage":[{"astId":3,"contract":"contracts/Habitude.sol:Habitude","label":"owner","offset":0,"slot":"0","type":"t_address"},{"astId":55,"contract":"contracts/Habitude.sol:Habitude","label":"habits","offset":0,"slot":"1","type":"t_mapping(t_string_memory_ptr,t_struct(Habit)14_storage)"},{"astId":60,"contract":"contracts/Habitude.sol:Habitude","label":"generalHabits","offset":0,"slot":"2","type":"t_mapping(t_string_memory_ptr,t_struct(Habit)14_storage)"},{"astId":64,"contract":"contracts/Habitude.sol:Habitude","label":"userPoints","offset":0,"slot":"3","type":"t_mapping(t_address,t_uint256)"},{"astId":69,"contract":"contracts/Habitude.sol:Habitude","label":"challenges","offset":0,"slot":"4","type":"t_mapping(t_string_memory_ptr,t_struct(Challenge)38_storage)"}],"types":{"t_address":{"encoding":"inplace","label":"address","numberOfBytes":"20"},"t_array(t_address)dyn_storage":{"base":"t_address","encoding":"dynamic_array","label":"address[]","numberOfBytes":"32"},"t_bool":{"encoding":"inplace","label":"bool","numberOfBytes":"1"},"t_mapping(t_address,t_bool)":{"encoding":"mapping","key":"t_address","label":"mapping(address => bool)","numberOfBytes":"32","value":"t_bool"},"t_mapping(t_address,t_uint256)":{"encoding":"mapping","key":"t_address","label":"mapping(address => uint256)","numberOfBytes":"32","value":"t_uint256"},"t_mapping(t_string_memory_ptr,t_bool)":{"encoding":"mapping","key":"t_string_memory_ptr","label":"mapping(string => bool)","numberOfBytes":"32","value":"t_bool"},"t_mapping(t_string_memory_ptr,t_struct(Challenge)38_storage)":{"encoding":"mapping","key":"t_string_memory_ptr","label":"mapping(string => struct Habitude.Challenge)","numberOfBytes":"32","value":"t_struct(Challenge)38_storage"},"t_mapping(t_string_memory_ptr,t_struct(Habit)14_storage)":{"encoding":"mapping","key":"t_string_memory_ptr","label":"mapping(string => struct Habitude.Habit)","numberOfBytes":"32","value":"t_struct(Habit)14_storage"},"t_string_memory_ptr":{"encoding":"bytes","label":"string","numberOfBytes":"32"},"t_string_storage":{"encoding":"bytes","label":"string","numberOfBytes":"32"},"t_struct(Challenge)38_storage":{"encoding":"inplace","label":"struct Habitude.Challenge","members":[{"astId":16,"contract":"contracts/Habitude.sol:Habitude","label":"name","offset":0,"slot":"0","type":"t_string_storage"},{"astId":18,"contract":"contracts/Habitude.sol:Habitude","label":"totalStackAmount","offset":0,"slot":"1","type":"t_uint256"},{"astId":20,"contract":"contracts/Habitude.sol:Habitude","label":"perPersonStake","offset":0,"slot":"2","type":"t_uint256"},{"astId":24,"contract":"contracts/Habitude.sol:Habitude","label":"participants","offset":0,"slot":"3","type":"t_mapping(t_address,t_bool)"},{"astId":28,"contract":"contracts/Habitude.sol:Habitude","label":"stakes","offset":0,"slot":"4","type":"t_mapping(t_address,t_uint256)"},{"astId":32,"contract":"contracts/Habitude.sol:Habitude","label":"habitsIncluded","offset":0,"slot":"5","type":"t_mapping(t_string_memory_ptr,t_bool)"},{"astId":35,"contract":"contracts/Habitude.sol:Habitude","label":"participantsArray","offset":0,"slot":"6","type":"t_array(t_address)dyn_storage"},{"astId":37,"contract":"contracts/Habitude.sol:Habitude","label":"completed","offset":0,"slot":"7","type":"t_bool"}],"numberOfBytes":"256"},"t_struct(Habit)14_storage":{"encoding":"inplace","label":"struct Habitude.Habit","members":[{"astId":5,"contract":"contracts/Habitude.sol:Habitude","label":"name","offset":0,"slot":"0","type":"t_string_storage"},{"astId":7,"contract":"contracts/Habitude.sol:Habitude","label":"goal","offset":0,"slot":"1","type":"t_uint256"},{"astId":9,"contract":"contracts/Habitude.sol:Habitude","label":"target","offset":0,"slot":"2","type":"t_uint256"},{"astId":11,"contract":"contracts/Habitude.sol:Habitude","label":"remainder","offset":0,"slot":"3","type":"t_uint256"},{"astId":13,"contract":"contracts/Habitude.sol:Habitude","label":"points","offset":0,"slot":"4","type":"t_uint256"}],"numberOfBytes":"160"},"t_uint256":{"encoding":"inplace","label":"uint256","numberOfBytes":"32"}}}}}}